WMSITR    O 20210311105512PUMA                CN   Inventory Transaction Outbound
ITRHDA          IQC0000008776PUMA           D6001D7001     20210311105508                    IQC01                                                                                                                                                                                                                                                                                                                                                                              
ITRDTA             IQC0000008776     PUMA           583828010140                                              +    0000000001                                                                                            2021031110550801                                                                                                                                                                                                                                                                                                          
ITRDTA             IQC0000008776     PUMA           855230010140                                              +    0000000001                                                                                            2021031110550801                                                                                                                                                                                                                                                                                                          
ITRDTA             IQC0000008776     PUMA           582682010140                                              +    0000000001                                                                                            2021031110550801                                                                                                                                                                                                                                                                                                          
ITRDTA             IQC0000008776     PUMA           756831030150                                              +    0000000001                                                                                            2021031110550801                                                                                                                                                                                                                                                                                                          
ITRDTA             IQC0000008776     PUMA           855231010160                                              +    0000000001                                                                                            2021031110550801                                                                                                                                                                                                                                                                                                          
ITRDTA             IQC0000008776     PUMA           580928010140                                              +    0000000001                                                                                            2021031110550801                                                                                                                                                                                                                                                                                                          
ITRDTA             IQC0000008776     PUMA           599197510150                                              +    0000000001                                                                                            2021031110550801                                                                                                                                                                                                                                                                                                          
ITRDTA             IQC0000008776     PUMA           597488010150                                              +    0000000001                                                                                            2021031110550801                                                                                                                                                                                                                                                                                                          
ITRDTA             IQC0000008776     PUMA           577708220140                                              +    0000000001                                                                                            2021031110550801                                                                                                                                                                                                                                                                                                          
ITRDTA             IQC0000008776     PUMA           580892010160                                              +    0000000001                                                                                            2021031110550801                                                                                                                                                                                                                                                                                                          
ITRDTA             IQC0000008776     PUMA           597353010130                                              +    0000000001                                                                                            2021031110550801                                                                                                                                                                                                                                                                                                          
ITRDTA             IQC0000008776     PUMA           855227010150                                              +    0000000001                                                                                            2021031110550801                                                                                                                                                                                                                                                                                                          
ITRDTA             IQC0000008776     PUMA           855226010140                                              +    0000000001                                                                                            2021031110550801                                                                                                                                                                                                                                                                                                          
ITRDTA             IQC0000008776     PUMA           582676010130                                              +    0000000001                                                                                            2021031110550801                                                                                                                                                                                                                                                                                                          
ITRTR0000000015
