WMSITR    O 20210311072320PUMA                CN   Inventory Transaction Outbound
ITRHDA          IQC0000008782PUMA           D6001D7002     20210311115639                    IQC01                                                                                                                                                                                                                                                                                                                                                                              
ITRDTA             IQC0000008782     PUMA           576437510120                                              +    0000000001                                                                                            2021031111563901                                                                                                                                                                                                                                                                                                          
ITRDTA             IQC0000008782     PUMA           369449190160                                              +    0000000001                                                                                            2021031111563901                                                                                                                                                                                                                                                                                                          
ITRDTA             IQC0000008782     PUMA           366487080160                                              +    0000000001                                                                                            2021031111563901                                                                                                                                                                                                                                                                                                          
ITRDTA             IQC0000008782     PUMA           373457010180                                              +    0000000001                                                                                            2021031111563901                                                                                                                                                                                                                                                                                                          
ITRDTA             IQC0000008782     PUMA           366487120150                                              +    0000000001                                                                                            2021031111563901                                                                                                                                                                                                                                                                                                          
ITRDTA             IQC0000008782     PUMA           366717010160                                              +    0000000001                                                                                            2021031111563901                                                                                                                                                                                                                                                                                                          
ITRDTA             IQC0000008782     PUMA           354367220170                                              +    0000000001                                                                                            2021031111563901                                                                                                                                                                                                                                                                                                          
ITRTR0000000008
