WMSITR    O 20210311105519PUMA                CN   Inventory Transaction Outbound
ITRHDA          IQC0000008777PUMA           D6001D7002     20210311105510                    IQC01                                                                                                                                                                                                                                                                                                                                                                              
ITRDTA             IQC0000008777     PUMA           374348010180                                              +    0000000001                                                                                            2021031110551001                                                                                                                                                                                                                                                                                                          
ITRDTA             IQC0000008777     PUMA           366994010230                                              +    0000000001                                                                                            2021031110551001                                                                                                                                                                                                                                                                                                          
ITRDTA             IQC0000008777     PUMA           372117010160                                              +    0000000001                                                                                            2021031110551001                                                                                                                                                                                                                                                                                                          
ITRDTA             IQC0000008777     PUMA           372423040160                                              +    0000000001                                                                                            2021031110551001                                                                                                                                                                                                                                                                                                          
ITRDTA             IQC0000008777     PUMA           373393020240                                              +    0000000001                                                                                            2021031110551001                                                                                                                                                                                                                                                                                                          
ITRDTA             IQC0000008777     PUMA           369287020200                                              +    0000000001                                                                                            2021031110551001                                                                                                                                                                                                                                                                                                          
ITRDTA             IQC0000008777     PUMA           371195020150                                              +    0000000001                                                                                            2021031110551001                                                                                                                                                                                                                                                                                                          
ITRTR0000000008
