WMSITR    O 20210311105523PUMA                CN   Inventory Transaction Outbound
ITRHDA          IQC0000008778PUMA           D6001D7001     20210311105510                    IQC01                                                                                                                                                                                                                                                                                                                                                                              
ITRDTA             IQC0000008778     PUMA           598564740180                                              +    0000000001                                                                                            2021031110551001                                                                                                                                                                                                                                                                                                          
ITRDTA             IQC0000008778     PUMA           372751010260                                              +    0000000001                                                                                            2021031110551001                                                                                                                                                                                                                                                                                                          
ITRDTA             IQC0000008778     PUMA           366903020260                                              +    0000000001                                                                                            2021031110551001                                                                                                                                                                                                                                                                                                          
ITRDTA             IQC0000008778     PUMA           371098020310                                              +    0000000001                                                                                            2021031110551001                                                                                                                                                                                                                                                                                                          
ITRDTA             IQC0000008778     PUMA           366610020240                                              +    0000000001                                                                                            2021031110551001                                                                                                                                                                                                                                                                                                          
ITRDTA             IQC0000008778     PUMA           366488030160                                              +    0000000001                                                                                            2021031110551001                                                                                                                                                                                                                                                                                                          
ITRDTA             IQC0000008778     PUMA           368185060180                                              +    0000000001                                                                                            2021031110551001                                                                                                                                                                                                                                                                                                          
ITRTR0000000008
