WMSSOHO 20210120095556PUMA                CN   SOH Outbound
SOHDTA20210120095556PUMA           D6001          021766010100                                                                                2021012009555620210120095556          0000000005                                                                                                                                                                                                                                                          
SOHDTA20210120095556PUMA           D6001          190371020160                                                                                2021012009555620210120095556          0000000007                                                                                                                                                                                                                                                          
SOHDTA20210120095556PUMA           D6001          190371020170                                                                                2021012009555620210120095556          0000000006                                                                                                                                                                                                                                                          
SOHDTA20210120095556PUMA           D6001          190371020180                                                                                2021012009555620210120095556          0000000006                                                                                                                                                                                                                                                          
SOHDTA20210120095556PUMA           D6001          190371020190                                                                                2021012009555620210120095556          0000000006                                                                                                                                                                                                                                                          
SOHDTA20210120095556PUMA           D6001          190371020200                                                                                2021012009555620210120095556          0000000006                                                                                                                                                                                                                                                          
SOHDTA20210120095556PUMA           D6001          190371020210                                                                                2021012009555620210120095556          0000000006                                                                                                                                                                                                                                                          
SOHDTA20210120095556PUMA           D6001          190371020170                                                                                2021012009555620210120095556          0000000003                                                                                                                                                                                                                                                          
SOHDTA20210120095556PUMA           D6001          190371020180                                                                                2021012009555620210120095556          0000000003                                                                                                                                                                                                                                                          
SOHDTA20210120095556PUMA           D6001          190371020190                                                                                2021012009555620210120095556          0000000003                                                                                                                                                                                                                                                          
SOHDTA20210120095556PUMA           D6001          190371020200                                                                                2021012009555620210120095556          0000000003                                                                                                                                                                                                                                                          
SOHDTA20210120095556PUMA           D6001          190371020210                                                                                2021012009555620210120095556          0000000003                                                                                                                                                                                                                                                          
SOHTR0000000013
