WMSITR    O 20210114055636PUMA                CN   Inventory Transaction Outbound
ITRHDA          ADJ0000008738PUMA           D7002          20210114055621                    ADJ3010                                                                                                                                                                                                                                                                                                                                                                            
ITRDTA             ADJ0000008738     PUMA           190371020220                                              +    0000000100                                                                                            202101140556213010                                                                                                                                                                                                                                                                                                        
ITRDTA             ADJ0000008738     PUMA           192575030290                                              +    0000000100                                                                                            202101140556213010                                                                                                                                                                                                                                                                                                        
ITRDTA             ADJ0000008738     PUMA           192575030240                                              +    0000000100                                                                                            202101140556213010                                                                                                                                                                                                                                                                                                        
ITRDTA             ADJ0000008738     PUMA           190371020170                                              +    0000000100                                                                                            202101140556213010                                                                                                                                                                                                                                                                                                        
ITRDTA             ADJ0000008738     PUMA           190371020250                                              +    0000000100                                                                                            202101140556213010                                                                                                                                                                                                                                                                                                        
ITRDTA             ADJ0000008738     PUMA           192575030230                                              +    0000000100                                                                                            202101140556213010                                                                                                                                                                                                                                                                                                        
ITRDTA             ADJ0000008738     PUMA           190371020160                                              +    0000000100                                                                                            202101140556213010                                                                                                                                                                                                                                                                                                        
ITRDTA             ADJ0000008738     PUMA           572435060120                                              +    0000000100                                                                                            202101140556213010                                                                                                                                                                                                                                                                                                        
ITRDTA             ADJ0000008738     PUMA           192575030180                                              +    0000000100                                                                                            202101140556213010                                                                                                                                                                                                                                                                                                        
ITRDTA             ADJ0000008738     PUMA           192575030220                                              +    0000000100                                                                                            202101140556213010                                                                                                                                                                                                                                                                                                        
ITRDTA             ADJ0000008738     PUMA           572435060150                                              +    0000000100                                                                                            202101140556213010                                                                                                                                                                                                                                                                                                        
ITRDTA             ADJ0000008738     PUMA           572435060130                                              +    0000000100                                                                                            202101140556213010                                                                                                                                                                                                                                                                                                        
ITRDTA             ADJ0000008738     PUMA           192575030280                                              +    0000000100                                                                                            202101140556213010                                                                                                                                                                                                                                                                                                        
ITRDTA             ADJ0000008738     PUMA           190371020230                                              +    0000000100                                                                                            202101140556213010                                                                                                                                                                                                                                                                                                        
ITRDTA             ADJ0000008738     PUMA           190371020290                                              +    0000000100                                                                                            202101140556213010                                                                                                                                                                                                                                                                                                        
ITRDTA             ADJ0000008738     PUMA           190371020210                                              +    0000000100                                                                                            202101140556213010                                                                                                                                                                                                                                                                                                        
ITRDTA             ADJ0000008738     PUMA           190371020190                                              +    0000000100                                                                                            202101140556213010                                                                                                                                                                                                                                                                                                        
ITRDTA             ADJ0000008738     PUMA           192575030250                                              +    0000000100                                                                                            202101140556213010                                                                                                                                                                                                                                                                                                        
ITRDTA             ADJ0000008738     PUMA           021766010100                                              +    0000000100                                                                                            202101140556213010                                                                                                                                                                                                                                                                                                        
ITRDTA             ADJ0000008738     PUMA           572435060140                                              +    0000000100                                                                                            202101140556213010                                                                                                                                                                                                                                                                                                        
ITRDTA             ADJ0000008738     PUMA           572435060170                                              +    0000000100                                                                                            202101140556213010                                                                                                                                                                                                                                                                                                        
ITRDTA             ADJ0000008738     PUMA           192575030260                                              +    0000000100                                                                                            202101140556213010                                                                                                                                                                                                                                                                                                        
ITRDTA             ADJ0000008738     PUMA           192575030210                                              +    0000000100                                                                                            202101140556213010                                                                                                                                                                                                                                                                                                        
ITRDTA             ADJ0000008738     PUMA           190371020280                                              +    0000000100                                                                                            202101140556213010                                                                                                                                                                                                                                                                                                        
ITRDTA             ADJ0000008738     PUMA           190371020180                                              +    0000000100                                                                                            202101140556213010                                                                                                                                                                                                                                                                                                        
ITRDTA             ADJ0000008738     PUMA           572435060160                                              +    0000000100                                                                                            202101140556213010                                                                                                                                                                                                                                                                                                        
ITRDTA             ADJ0000008738     PUMA           192575030160                                              +    0000000100                                                                                            202101140556213010                                                                                                                                                                                                                                                                                                        
ITRDTA             ADJ0000008738     PUMA           190371020240                                              +    0000000100                                                                                            202101140556213010                                                                                                                                                                                                                                                                                                        
ITRDTA             ADJ0000008738     PUMA           190371020200                                              +    0000000100                                                                                            202101140556213010                                                                                                                                                                                                                                                                                                        
ITRDTA             ADJ0000008738     PUMA           192575030200                                              +    0000000100                                                                                            202101140556213010                                                                                                                                                                                                                                                                                                        
ITRDTA             ADJ0000008738     PUMA           192575030170                                              +    0000000100                                                                                            202101140556213010                                                                                                                                                                                                                                                                                                        
ITRDTA             ADJ0000008738     PUMA           192575030190                                              +    0000000100                                                                                            202101140556213010                                                                                                                                                                                                                                                                                                        
ITRDTA             ADJ0000008738     PUMA           190371020260                                              +    0000000100                                                                                            202101140556213010                                                                                                                                                                                                                                                                                                        
ITRTR0000000034
