WMSSOHO 20210312062512PUMA                CN   SOH Outbound
SOHDTA20210312062512PUMA           D7002          354367220170                                                                                2021031206251220210312062512          0000000001                                                                                                                                                                                                                                                          
SOHDTA20210312062512PUMA           D7001          380196010150                                                                                2021031206251220210312062512          0000000001                                                                                                                                                                                                                                                          
SOHDTA20210312062512PUMA           D7001          373117100200                                                                                2021031206251220210312062512          0000000001                                                                                                                                                                                                                                                          
SOHDTA20210312062512PUMA           D7001          581667070150                                                                                2021031206251220210312062512          0000000001                                                                                                                                                                                                                                                          
SOHDTA20210312062512PUMA           D7001          581650010160                                                                                2021031206251220210312062512          0000000001                                                                                                                                                                                                                                                          
SOHDTA20210312062512PUMA           D7001          354367220140                                                                                2021031206251220210312062512          0000000001                                                                                                                                                                                                                                                          
SOHDTA20210312062512PUMA           D7001          583828010160                                                                                2021031206251220210312062512          0000000001                                                                                                                                                                                                                                                          
SOHDTA20210312062512PUMA           D7001          371640020160                                                                                2021031206251220210312062512          0000000001                                                                                                                                                                                                                                                          
SOHDTA20210312062512PUMA           D7001          599062510140                                                                                2021031206251220210312062512          0000000001                                                                                                                                                                                                                                                          
SOHDTA20210312062512PUMA           D7001          374122060160                                                                                2021031206251220210312062512          0000000001                                                                                                                                                                                                                                                          
SOHDTA20210312062512PUMA           D7001          599062510150                                                                                2021031206251220210312062512          0000000001                                                                                                                                                                                                                                                          
SOHDTA20210312062512PUMA           D7001          598242320130                                                                                2021031206251220210312062512          0000000001                                                                                                                                                                                                                                                          
SOHDTA20210312062512PUMA           D7001          855226010140                                                                                2021031206251220210312062512          0000000001                                                                                                                                                                                                                                                          
SOHDTA20210312062512PUMA           D7001          371870020180                                                                                2021031206251220210312062512          0000000001                                                                                                                                                                                                                                                          
SOHDTA20210312062512PUMA           D7001          588751010140                                                                                2021031206251220210312062512          0000000001                                                                                                                                                                                                                                                          
SOHDTA20210312062512PUMA           D7001          372611060240                                                                                2021031206251220210312062512          0000000001                                                                                                                                                                                                                                                          
SOHDTA20210312062512PUMA           D7002          373457010180                                                                                2021031206251220210312062512          0000000001                                                                                                                                                                                                                                                          
SOHDTA20210312062512PUMA           D7001          371149150230                                                                                2021031206251220210312062512          0000000001                                                                                                                                                                                                                                                          
SOHDTA20210312062512PUMA           D7001          369503010160                                                                                2021031206251220210312062512          0000000001                                                                                                                                                                                                                                                          
SOHDTA20210312062512PUMA           D7001          366717020160                                                                                2021031206251220210312062512          0000000001                                                                                                                                                                                                                                                          
SOHDTA20210312062512PUMA           D7001          366805010160                                                                                2021031206251220210312062512          0000000001                                                                                                                                                                                                                                                          
SOHDTA20210312062512PUMA           D7001          370325070200                                                                                2021031206251220210312062512          0000000001                                                                                                                                                                                                                                                          
SOHDTA20210312062512PUMA           D7001          587003010150                                                                                2021031206251220210312062512          0000000001                                                                                                                                                                                                                                                          
SOHDTA20210312062512PUMA           D7001          582875030130                                                                                2021031206251220210312062512          0000000001                                                                                                                                                                                                                                                          
SOHDTA20210312062512PUMA           D7001          022546010120                                                                                2021031206251220210312062512          0000000001                                                                                                                                                                                                                                                          
SOHDTA20210312062512PUMA           D7001          372611060210                                                                                2021031206251220210312062512          0000000001                                                                                                                                                                                                                                                          
SOHDTA20210312062512PUMA           D7002          372611060210                                                                                2021031206251220210312062512          0000000001                                                                                                                                                                                                                                                          
SOHDTA20210312062512PUMA           D7001          371475010240                                                                                2021031206251220210312062512          0000000001                                                                                                                                                                                                                                                          
SOHDTA20210312062512PUMA           D7002          366487120160                                                                                2021031206251220210312062512          0000000001                                                                                                                                                                                                                                                          
SOHDTA20210312062512PUMA           D7002          366487120170                                                                                2021031206251220210312062512          0000000001                                                                                                                                                                                                                                                          
SOHDTA20210312062512PUMA           D7001          907134160130                                                                                2021031206251220210312062512          0000000001                                                                                                                                                                                                                                                          
SOHDTA20210312062512PUMA           D7001          371075010160                                                                                2021031206251220210312062512          0000000001                                                                                                                                                                                                                                                          
SOHDTA20210312062512PUMA           D7001          191071030150                                                                                2021031206251220210312062512          0000000001                                                                                                                                                                                                                                                          
SOHDTA20210312062512PUMA           D7001          582961010140                                                                                2021031206251220210312062512          0000000001                                                                                                                                                                                                                                                          
SOHDTA20210312062512PUMA           D7002          366805020160                                                                                2021031206251220210312062512          0000000001                                                                                                                                                                                                                                                          
SOHDTA20210312062512PUMA           D7001          853633150130                                                                                2021031206251220210312062512          0000000001                                                                                                                                                                                                                                                          
SOHDTA20210312062512PUMA           D7001          191071040160                                                                                2021031206251220210312062512          0000000001                                                                                                                                                                                                                                                          
SOHDTA20210312062512PUMA           D7001          192581020170                                                                                2021031206251220210312062512          0000000001                                                                                                                                                                                                                                                          
SOHDTA20210312062512PUMA           D7001          599216020130                                                                                2021031206251220210312062512          0000000001                                                                                                                                                                                                                                                          
SOHDTA20210312062512PUMA           D7002          584745020120                                                                                2021031206251220210312062512          0000000001                                                                                                                                                                                                                                                          
SOHDTA20210312062512PUMA           D7001          360263080140                                                                                2021031206251220210312062512          0000000001                                                                                                                                                                                                                                                          
SOHDTA20210312062512PUMA           D7001          581619510120                                                                                2021031206251220210312062512          0000000001                                                                                                                                                                                                                                                          
SOHDTA20210312062512PUMA           D7001          855227010120                                                                                2021031206251220210312062512          0000000001                                                                                                                                                                                                                                                          
SOHDTA20210312062512PUMA           D7001          581638370150                                                                                2021031206251220210312062512          0000000001                                                                                                                                                                                                                                                          
SOHDTA20210312062512PUMA           D7001          855230030140                                                                                2021031206251220210312062512          0000000001                                                                                                                                                                                                                                                          
SOHDTA20210312062512PUMA           D7001          360116020180                                                                                2021031206251220210312062512          0000000001                                                                                                                                                                                                                                                          
SOHDTA20210312062512PUMA           D7002          369287020180                                                                                2021031206251220210312062512          0000000001                                                                                                                                                                                                                                                          
SOHDTA20210312062512PUMA           D7001          581638010160                                                                                2021031206251220210312062512          0000000001                                                                                                                                                                                                                                                          
SOHDTA20210312062512PUMA           D7001          844614010130                                                                                2021031206251220210312062512          0000000001                                                                                                                                                                                                                                                          
SOHDTA20210312062512PUMA           D7002          359128150230                                                                                2021031206251220210312062512          0000000001                                                                                                                                                                                                                                                          
SOHDTA20210312062512PUMA           D7001          360116060150                                                                                2021031206251220210312062512          0000000001                                                                                                                                                                                                                                                          
SOHDTA20210312062512PUMA           D7001          845165060140                                                                                2021031206251220210312062512          0000000001                                                                                                                                                                                                                                                          
SOHDTA20210312062512PUMA           D7002          371986010240                                                                                2021031206251220210312062512          0000000001                                                                                                                                                                                                                                                          
SOHDTA20210312062512PUMA           D7002          361730010200                                                                                2021031206251220210312062512          0000000001                                                                                                                                                                                                                                                          
SOHDTA20210312062512PUMA           D7002          580823060130                                                                                2021031206251220210312062512          0000000001                                                                                                                                                                                                                                                          
SOHDTA20210312062512PUMA           D7001          845676010130                                                                                2021031206251220210312062512          0000000001                                                                                                                                                                                                                                                          
SOHDTA20210312062512PUMA           D7002          356722250200                                                                                2021031206251220210312062512          0000000001                                                                                                                                                                                                                                                          
SOHDTA20210312062512PUMA           D7001          041612010140                                                                                2021031206251220210312062512          0000000001                                                                                                                                                                                                                                                          
SOHDTA20210312062512PUMA           D7002          366487120170                                                                                2021031206251220210312062512          0000000001                                                                                                                                                                                                                                                          
SOHDTA20210312062512PUMA           D7002          354367220140                                                                                2021031206251220210312062512          0000000001                                                                                                                                                                                                                                                          
SOHDTA20210312062512PUMA           D7002          371766010210                                                                                2021031206251220210312062512          0000000001                                                                                                                                                                                                                                                          
SOHDTA20210312062512PUMA           D7002          356722110150                                                                                2021031206251220210312062512          0000000001                                                                                                                                                                                                                                                          
SOHDTA20210312062512PUMA           D7002          598236010130                                                                                2021031206251220210312062512          0000000001                                                                                                                                                                                                                                                          
SOHDTA20210312062512PUMA           D7001          356722250240                                                                                2021031206251220210312062512          0000000001                                                                                                                                                                                                                                                          
SOHDTA20210312062512PUMA           D7001          371135040230                                                                                2021031206251220210312062512          0000000001                                                                                                                                                                                                                                                          
SOHDTA20210312062512PUMA           D7001          597471010150                                                                                2021031206251220210312062512          0000000001                                                                                                                                                                                                                                                          
SOHDTA20210312062512PUMA           D7002          369155010210                                                                                2021031206251220210312062512          0000000001                                                                                                                                                                                                                                                          
SOHDTA20210312062512PUMA           D7002          366487120140                                                                                2021031206251220210312062512          0000000001                                                                                                                                                                                                                                                          
SOHDTA20210312062512PUMA           D7001          582911010120                                                                                2021031206251220210312062512          0000000001                                                                                                                                                                                                                                                          
SOHDTA20210312062512PUMA           D7002          366487120150                                                                                2021031206251220210312062512          0000000001                                                                                                                                                                                                                                                          
SOHDTA20210312062512PUMA           D7001          598136010150                                                                                2021031206251220210312062512          0000000001                                                                                                                                                                                                                                                          
SOHDTA20210312062512PUMA           D7001          371582020230                                                                                2021031206251220210312062512          0000000001                                                                                                                                                                                                                                                          
SOHDTA20210312062512PUMA           D7001          758057030130                                                                                2021031206251220210312062512          0000000001                                                                                                                                                                                                                                                          
SOHDTA20210312062512PUMA           D7001          597344010130                                                                                2021031206251220210312062512          0000000001                                                                                                                                                                                                                                                          
SOHDTA20210312062512PUMA           D7001          366903020220                                                                                2021031206251220210312062512          0000000001                                                                                                                                                                                                                                                          
SOHDTA20210312062512PUMA           D7001          580892110120                                                                                2021031206251220210312062512          0000000001                                                                                                                                                                                                                                                          
SOHDTA20210312062512PUMA           D7001          369778180160                                                                                2021031206251220210312062512          0000000001                                                                                                                                                                                                                                                          
SOHDTA20210312062512PUMA           D7002          366717010160                                                                                2021031206251220210312062512          0000000001                                                                                                                                                                                                                                                          
SOHDTA20210312062512PUMA           D7002          369449190160                                                                                2021031206251220210312062512          0000000001                                                                                                                                                                                                                                                          
SOHDTA20210312062512PUMA           D7001          582911010150                                                                                2021031206251220210312062512          0000000001                                                                                                                                                                                                                                                          
SOHDTA20210312062512PUMA           D7001          371870020160                                                                                2021031206251220210312062512          0000000001                                                                                                                                                                                                                                                          
SOHDTA20210312062512PUMA           D7001          365830140200                                                                                2021031206251220210312062512          0000000001                                                                                                                                                                                                                                                          
SOHDTA20210312062512PUMA           D7001          586594010120                                                                                2021031206251220210312062512          0000000001                                                                                                                                                                                                                                                          
SOHDTA20210312062512PUMA           D7001          907136020120                                                                                2021031206251220210312062512          0000000001                                                                                                                                                                                                                                                          
SOHDTA20210312062512PUMA           D7001          371570020230                                                                                2021031206251220210312062512          0000000001                                                                                                                                                                                                                                                          
SOHDTA20210312062512PUMA           D7002          364977020240                                                                                2021031206251220210312062512          0000000001                                                                                                                                                                                                                                                          
SOHDTA20210312062512PUMA           D7001          356722020230                                                                                2021031206251220210312062512          0000000001                                                                                                                                                                                                                                                          
SOHDTA20210312062512PUMA           D7001          593054010160                                                                                2021031206251220210312062512          0000000001                                                                                                                                                                                                                                                          
SOHDTA20210312062512PUMA           D7002          366487120180                                                                                2021031206251220210312062512          0000000001                                                                                                                                                                                                                                                          
SOHDTA20210312062512PUMA           D7002          370546010240                                                                                2021031206251220210312062512          0000000001                                                                                                                                                                                                                                                          
SOHDTA20210312062512PUMA           D7002          598236010150                                                                                2021031206251220210312062512          0000000001                                                                                                                                                                                                                                                          
SOHDTA20210312062512PUMA           D7001          372611010270                                                                                2021031206251220210312062512          0000000001                                                                                                                                                                                                                                                          
SOHDTA20210312062512PUMA           D7001          595907920130                                                                                2021031206251220210312062512          0000000001                                                                                                                                                                                                                                                          
SOHDTA20210312062512PUMA           D7001          580566020130                                                                                2021031206251220210312062512          0000000001                                                                                                                                                                                                                                                          
SOHDTA20210312062512PUMA           D7001          853637150140                                                                                2021031206251220210312062512          0000000001                                                                                                                                                                                                                                                          
SOHDTA20210312062512PUMA           D7001          581638010140                                                                                2021031206251220210312062512          0000000001                                                                                                                                                                                                                                                          
SOHDTA20210312062512PUMA           D7002          372595010150                                                                                2021031206251220210312062512          0000000001                                                                                                                                                                                                                                                          
SOHDTA20210312062512PUMA           D7001          021912020120                                                                                2021031206251220210312062512          0000000002                                                                                                                                                                                                                                                          
SOHDTA20210312062512PUMA           D7001          853639010130                                                                                2021031206251220210312062512          0000000001                                                                                                                                                                                                                                                          
SOHDTA20210312062512PUMA           D7002          369863050240                                                                                2021031206251220210312062512          0000000001                                                                                                                                                                                                                                                          
SOHDTA20210312062512PUMA           D7002          371195020180                                                                                2021031206251220210312062512          0000000001                                                                                                                                                                                                                                                          
SOHDTA20210312062512PUMA           D7002          366488030150                                                                                2021031206251220210312062512          0000000001                                                                                                                                                                                                                                                          
SOHDTA20210312062512PUMA           D7002          371498020240                                                                                2021031206251220210312062512          0000000001                                                                                                                                                                                                                                                          
SOHDTA20210312062512PUMA           D7001          356722230230                                                                                2021031206251220210312062512          0000000001                                                                                                                                                                                                                                                          
SOHDTA20210312062512PUMA           D7002          366416030160                                                                                2021031206251220210312062512          0000000001                                                                                                                                                                                                                                                          
SOHDTA20210312062512PUMA           D7002          356722110230                                                                                2021031206251220210312062512          0000000001                                                                                                                                                                                                                                                          
SOHDTA20210312062512PUMA           D7001          369155010210                                                                                2021031206251220210312062512          0000000001                                                                                                                                                                                                                                                          
SOHDTA20210312062512PUMA           D7001          853633150140                                                                                2021031206251220210312062512          0000000001                                                                                                                                                                                                                                                          
SOHDTA20210312062512PUMA           D7001          596533010160                                                                                2021031206251220210312062512          0000000001                                                                                                                                                                                                                                                          
SOHDTA20210312062512PUMA           D7001          581637010150                                                                                2021031206251220210312062512          0000000001                                                                                                                                                                                                                                                          
SOHDTA20210312062512PUMA           D7001          580879010130                                                                                2021031206251220210312062512          0000000001                                                                                                                                                                                                                                                          
SOHDTA20210312062512PUMA           D7001          845160060140                                                                                2021031206251220210312062512          0000000001                                                                                                                                                                                                                                                          
SOHDTA20210312062512PUMA           D7001          596873510130                                                                                2021031206251220210312062512          0000000001                                                                                                                                                                                                                                                          
SOHDTA20210312062512PUMA           D7002          371584010240                                                                                2021031206251220210312062512          0000000001                                                                                                                                                                                                                                                          
SOHDTA20210312062512PUMA           D7002          370325070150                                                                                2021031206251220210312062512          0000000001                                                                                                                                                                                                                                                          
SOHDTA20210312062512PUMA           D7001          581619510120                                                                                2021031206251220210312062512          0000000001                                                                                                                                                                                                                                                          
SOHDTA20210312062512PUMA           D7001          022374010120                                                                                2021031206251220210312062512          0000000002                                                                                                                                                                                                                                                          
SOHDTA20210312062512PUMA           D7001          581037010140                                                                                2021031206251220210312062512          0000000001                                                                                                                                                                                                                                                          
SOHDTA20210312062512PUMA           D7001          581027520140                                                                                2021031206251220210312062512          0000000001                                                                                                                                                                                                                                                          
SOHDTA20210312062512PUMA           D7001          855230010140                                                                                2021031206251220210312062512          0000000001                                                                                                                                                                                                                                                          
SOHDTA20210312062512PUMA           D7001          577708220140                                                                                2021031206251220210312062512          0000000001                                                                                                                                                                                                                                                          
SOHDTA20210312062512PUMA           D7001          855226010140                                                                                2021031206251220210312062512          0000000001                                                                                                                                                                                                                                                          
SOHDTA20210312062512PUMA           D7001          597353010130                                                                                2021031206251220210312062512          0000000001                                                                                                                                                                                                                                                          
SOHDTA20210312062512PUMA           D7001          597488010150                                                                                2021031206251220210312062512          0000000001                                                                                                                                                                                                                                                          
SOHDTA20210312062512PUMA           D7001          580892010160                                                                                2021031206251220210312062512          0000000001                                                                                                                                                                                                                                                          
SOHDTA20210312062512PUMA           D7001          582676010130                                                                                2021031206251220210312062512          0000000001                                                                                                                                                                                                                                                          
SOHDTA20210312062512PUMA           D7001          756831030150                                                                                2021031206251220210312062512          0000000001                                                                                                                                                                                                                                                          
SOHDTA20210312062512PUMA           D7001          583828010140                                                                                2021031206251220210312062512          0000000001                                                                                                                                                                                                                                                          
SOHDTA20210312062512PUMA           D7001          582682010140                                                                                2021031206251220210312062512          0000000001                                                                                                                                                                                                                                                          
SOHDTA20210312062512PUMA           D7001          855227010150                                                                                2021031206251220210312062512          0000000001                                                                                                                                                                                                                                                          
SOHDTA20210312062512PUMA           D7001          599197510150                                                                                2021031206251220210312062512          0000000001                                                                                                                                                                                                                                                          
SOHDTA20210312062512PUMA           D7001          580928010140                                                                                2021031206251220210312062512          0000000001                                                                                                                                                                                                                                                          
SOHDTA20210312062512PUMA           D7001          855231010160                                                                                2021031206251220210312062512          0000000001                                                                                                                                                                                                                                                          
SOHDTA20210312062512PUMA           D7001          530002050140                                                                                2021031206251220210312062512          0000000001                                                                                                                                                                                                                                                          
SOHDTA20210312062512PUMA           D7001          853633150150                                                                                2021031206251220210312062512          0000000001                                                                                                                                                                                                                                                          
SOHDTA20210312062512PUMA           D7001          599143010140                                                                                2021031206251220210312062512          0000000001                                                                                                                                                                                                                                                          
SOHDTA20210312062512PUMA           D7002          372423040160                                                                                2021031206251220210312062512          0000000001                                                                                                                                                                                                                                                          
SOHDTA20210312062512PUMA           D7002          373393020240                                                                                2021031206251220210312062512          0000000001                                                                                                                                                                                                                                                          
SOHDTA20210312062512PUMA           D7002          369287020200                                                                                2021031206251220210312062512          0000000001                                                                                                                                                                                                                                                          
SOHDTA20210312062512PUMA           D7001          371098020310                                                                                2021031206251220210312062512          0000000001                                                                                                                                                                                                                                                          
SOHDTA20210312062512PUMA           D7002          371195020150                                                                                2021031206251220210312062512          0000000001                                                                                                                                                                                                                                                          
SOHDTA20210312062512PUMA           D7002          374348010180                                                                                2021031206251220210312062512          0000000001                                                                                                                                                                                                                                                          
SOHDTA20210312062512PUMA           D7001          366903020260                                                                                2021031206251220210312062512          0000000001                                                                                                                                                                                                                                                          
SOHDTA20210312062512PUMA           D7001          368185060180                                                                                2021031206251220210312062512          0000000001                                                                                                                                                                                                                                                          
SOHDTA20210312062512PUMA           D7002          372117010160                                                                                2021031206251220210312062512          0000000001                                                                                                                                                                                                                                                          
SOHDTA20210312062512PUMA           D7001          598564740180                                                                                2021031206251220210312062512          0000000001                                                                                                                                                                                                                                                          
SOHDTA20210312062512PUMA           D7001          372751010260                                                                                2021031206251220210312062512          0000000001                                                                                                                                                                                                                                                          
SOHDTA20210312062512PUMA           D7001          366610020240                                                                                2021031206251220210312062512          0000000001                                                                                                                                                                                                                                                          
SOHDTA20210312062512PUMA           D7002          366994010230                                                                                2021031206251220210312062512          0000000001                                                                                                                                                                                                                                                          
SOHDTA20210312062512PUMA           D7001          366488030160                                                                                2021031206251220210312062512          0000000001                                                                                                                                                                                                                                                          
SOHDTA20210312062512PUMA           D7001          366717020180                                                                                2021031206251220210312062512          0000000001                                                                                                                                                                                                                                                          
SOHDTA20210312062512PUMA           D7001          366487120170                                                                                2021031206251220210312062512          0000000001                                                                                                                                                                                                                                                          
SOHDTA20210312062512PUMA           D7001          371995020270                                                                                2021031206251220210312062512          0000000001                                                                                                                                                                                                                                                          
SOHDTA20210312062512PUMA           D7001          374066010240                                                                                2021031206251220210312062512          0000000001                                                                                                                                                                                                                                                          
SOHDTA20210312062512PUMA           D7001          369502070180                                                                                2021031206251220210312062512          0000000001                                                                                                                                                                                                                                                          
SOHDTA20210312062512PUMA           D7001          530163850120                                                                                2021031206251220210312062512          0000000001                                                                                                                                                                                                                                                          
SOHDTA20210312062512PUMA           D7001          582723440140                                                                                2021031206251220210312062512          0000000001                                                                                                                                                                                                                                                          
SOHDTA20210312062512PUMA           D7001          373075020270                                                                                2021031206251220210312062512          0000000001                                                                                                                                                                                                                                                          
SOHDTA20210312062512PUMA           D7001          191071040160                                                                                2021031206251220210312062512          0000000001                                                                                                                                                                                                                                                          
SOHDTA20210312062512PUMA           D7001          374874010240                                                                                2021031206251220210312062512          0000000001                                                                                                                                                                                                                                                          
SOHDTA20210312062512PUMA           D7001          366487080140                                                                                2021031206251220210312062512          0000000001                                                                                                                                                                                                                                                          
SOHDTA20210312062512PUMA           D7001          585089050150                                                                                2021031206251220210312062512          0000000001                                                                                                                                                                                                                                                          
SOHDTA20210312062512PUMA           D7001          369503010240                                                                                2021031206251220210312062512          0000000001                                                                                                                                                                                                                                                          
SOHDTA20210312062512PUMA           D7001          371149070240                                                                                2021031206251220210312062512          0000000001                                                                                                                                                                                                                                                          
SOHDTA20210312062512PUMA           D7001          596662500100                                                                                2021031206251220210312062512          0000000001                                                                                                                                                                                                                                                          
SOHDTA20210312062512PUMA           D7002          576437510120                                                                                2021031206251220210312062512          0000000001                                                                                                                                                                                                                                                          
SOHDTA20210312062512PUMA           D7001          354367220110                                                                                2021031206251220210312062512          0000000001                                                                                                                                                                                                                                                          
SOHDTA20210312062512PUMA           D7001          366487120140                                                                                2021031206251220210312062512          0000000001                                                                                                                                                                                                                                                          
SOHDTA20210312062512PUMA           D7001          371149010240                                                                                2021031206251220210312062512          0000000001                                                                                                                                                                                                                                                          
SOHDTA20210312062512PUMA           D7001          371640020180                                                                                2021031206251220210312062512          0000000001                                                                                                                                                                                                                                                          
SOHDTA20210312062512PUMA           D7001          370376070150                                                                                2021031206251220210312062512          0000000001                                                                                                                                                                                                                                                          
SOHDTA20210312062512PUMA           D7002          366487080170                                                                                2021031206251220210312062512          0000000001                                                                                                                                                                                                                                                          
SOHDTA20210312062512PUMA           D7001          370076020240                                                                                2021031206251220210312062512          0000000001                                                                                                                                                                                                                                                          
SOHDTA20210312062512PUMA           D7001          372423020160                                                                                2021031206251220210312062512          0000000001                                                                                                                                                                                                                                                          
SOHDTA20210312062512PUMA           D7001          907710010100                                                                                2021031206251220210312062512          0000000001                                                                                                                                                                                                                                                          
SOHDTA20210312062512PUMA           D7001          907143100100                                                                                2021031206251220210312062512          0000000001                                                                                                                                                                                                                                                          
SOHDTA20210312062512PUMA           D7002          366487120180                                                                                2021031206251220210312062512          0000000001                                                                                                                                                                                                                                                          
SOHDTA20210312062512PUMA           D7002          373027050240                                                                                2021031206251220210312062512          0000000001                                                                                                                                                                                                                                                          
SOHDTA20210312062512PUMA           D7001          582875010130                                                                                2021031206251220210312062512          0000000001                                                                                                                                                                                                                                                          
SOHDTA20210312062512PUMA           D7002          372611060260                                                                                2021031206251220210312062512          0000000001                                                                                                                                                                                                                                                          
SOHDTA20210312062512PUMA           D7001          588736020120                                                                                2021031206251220210312062512          0000000001                                                                                                                                                                                                                                                          
SOHDTA20210312062512PUMA           D7001          907143110110                                                                                2021031206251220210312062512          0000000003                                                                                                                                                                                                                                                          
SOHDTA20210312062512PUMA           D7001          191071030160                                                                                2021031206251220210312062512          0000000001                                                                                                                                                                                                                                                          
SOHDTA20210312062512PUMA           D7001          853633150160                                                                                2021031206251220210312062512          0000000001                                                                                                                                                                                                                                                          
SOHDTA20210312062512PUMA           D7001          374211010240                                                                                2021031206251220210312062512          0000000001                                                                                                                                                                                                                                                          
SOHDTA20210312062512PUMA           D7001          371075010150                                                                                2021031206251220210312062512          0000000001                                                                                                                                                                                                                                                          
SOHDTA20210312062512PUMA           D7001          593054060120                                                                                2021031206251220210312062512          0000000001                                                                                                                                                                                                                                                          
SOHDTA20210312062512PUMA           D7001          363717050260                                                                                2021031206251220210312062512          0000000001                                                                                                                                                                                                                                                          
SOHDTA20210312062512PUMA           D7001          354367220190                                                                                2021031206251220210312062512          0000000001                                                                                                                                                                                                                                                          
SOHDTA20210312062512PUMA           D7002          372205010180                                                                                2021031206251220210312062512          0000000001                                                                                                                                                                                                                                                          
SOHDTA20210312062512PUMA           D7001          595537010110                                                                                2021031206251220210312062512          0000000001                                                                                                                                                                                                                                                          
SOHDTA20210312062512PUMA           D7002          366487080150                                                                                2021031206251220210312062512          0000000001                                                                                                                                                                                                                                                          
SOHDTA20210312062512PUMA           D7001          076927010100                                                                                2021031206251220210312062512          0000000001                                                                                                                                                                                                                                                          
SOHDTA20210312062512PUMA           D7001          370325070150                                                                                2021031206251220210312062512          0000000001                                                                                                                                                                                                                                                          
SOHDTA20210312062512PUMA           D7001          364977020260                                                                                2021031206251220210312062512          0000000001                                                                                                                                                                                                                                                          
SOHDTA20210312062512PUMA           D7002          363717010260                                                                                2021031206251220210312062512          0000000001                                                                                                                                                                                                                                                          
SOHDTA20210312062512PUMA           D7001          580823010130                                                                                2021031206251220210312062512          0000000001                                                                                                                                                                                                                                                          
SOHDTA20210312062512PUMA           D7001          853633010140                                                                                2021031206251220210312062512          0000000001                                                                                                                                                                                                                                                          
SOHDTA20210312062512PUMA           D7001          371582020240                                                                                2021031206251220210312062512          0000000001                                                                                                                                                                                                                                                          
SOHDTA20210312062512PUMA           D7001          366487120160                                                                                2021031206251220210312062512          0000000001                                                                                                                                                                                                                                                          
SOHDTA20210312062512PUMA           D7001          372423010160                                                                                2021031206251220210312062512          0000000001                                                                                                                                                                                                                                                          
SOHDTA20210312062512PUMA           D7001          366717010180                                                                                2021031206251220210312062512          0000000001                                                                                                                                                                                                                                                          
SOHDTA20210312062512PUMA           D7001          354367220200                                                                                2021031206251220210312062512          0000000001                                                                                                                                                                                                                                                          
SOHDTA20210312062512PUMA           D7002          354367220140                                                                                2021031206251220210312062512          0000000001                                                                                                                                                                                                                                                          
SOHDTA20210312062512PUMA           D7002          369287020140                                                                                2021031206251220210312062512          0000000001                                                                                                                                                                                                                                                          
SOHDTA20210312062512PUMA           D7001          364977020180                                                                                2021031206251220210312062512          0000000001                                                                                                                                                                                                                                                          
SOHDTA20210312062512PUMA           D7001          576437020120                                                                                2021031206251220210312062512          0000000001                                                                                                                                                                                                                                                          
SOHDTA20210312062512PUMA           D7002          192581010170                                                                                2021031206251220210312062512          0000000001                                                                                                                                                                                                                                                          
SOHDTA20210312062512PUMA           D7002          581617010140                                                                                2021031206251220210312062512          0000000001                                                                                                                                                                                                                                                          
SOHDTA20210312062512PUMA           D7001          370325150180                                                                                2021031206251220210312062512          0000000001                                                                                                                                                                                                                                                          
SOHDTA20210312062512PUMA           D7001          370325180180                                                                                2021031206251220210312062512          0000000001                                                                                                                                                                                                                                                          
SOHDTA20210312062512PUMA           D7001          356722110180                                                                                2021031206251220210312062512          0000000001                                                                                                                                                                                                                                                          
SOHDTA20210312062512PUMA           D7001          365787010230                                                                                2021031206251220210312062512          0000000001                                                                                                                                                                                                                                                          
SOHDTA20210312062512PUMA           D7001          593054010130                                                                                2021031206251220210312062512          0000000001                                                                                                                                                                                                                                                          
SOHDTA20210312062512PUMA           D7001          365787010180                                                                                2021031206251220210312062512          0000000001                                                                                                                                                                                                                                                          
SOHDTA20210312062512PUMA           D7002          370325070170                                                                                2021031206251220210312062512          0000000001                                                                                                                                                                                                                                                          
SOHDTA20210312062512PUMA           D7001          576437510150                                                                                2021031206251220210312062512          0000000001                                                                                                                                                                                                                                                          
SOHDTA20210312062512PUMA           D7001          370325070180                                                                                2021031206251220210312062512          0000000001                                                                                                                                                                                                                                                          
SOHDTA20210312062512PUMA           D7002          369777040270                                                                                2021031206251220210312062512          0000000001                                                                                                                                                                                                                                                          
SOHDTA20210312062512PUMA           D7001          192442060220                                                                                2021031206251220210312062512          0000000001                                                                                                                                                                                                                                                          
SOHDTA20210312062512PUMA           D7002          593054010140                                                                                2021031206251220210312062512          0000000001                                                                                                                                                                                                                                                          
SOHDTA20210312062512PUMA           D7001          368035060140                                                                                2021031206251220210312062512          0000000001                                                                                                                                                                                                                                                          
SOHDTA20210312062512PUMA           D7001          579124020130                                                                                2021031206251220210312062512          0000000001                                                                                                                                                                                                                                                          
SOHDTA20210312062512PUMA           D7001          359169020260                                                                                2021031206251220210312062512          0000000001                                                                                                                                                                                                                                                          
SOHDTA20210312062512PUMA           D7002          581619510140                                                                                2021031206251220210312062512          0000000001                                                                                                                                                                                                                                                          
SOHDTA20210312062512PUMA           D7002          356722110240                                                                                2021031206251220210312062512          0000000001                                                                                                                                                                                                                                                          
