WMSSOHO 20210115055007PUMA                CN   SOH Outbound
SOHDTA20210115055008PUMA           D6001                                                                                                      2021011505501120210115055011          0000000007                                                                                                                                                                                                                                                          
SOHDTA20210115055011PUMA                                                                                                                      2021011505501120210115055011          0000000008                                                                                                                                                                                                                                                          
SOHDTA20210115055011PUMA           D6001                                                                                                      2021011505501120210115055011          0000000002                                                                                                                                                                                                                                                          
SOHDTA20210115055011PUMA           D6001                                                                                                      2021011505501120210115055011          0000000015                                                                                                                                                                                                                                                          
SOHDTA20210115055011PUMA                                                                                                                      2021011505501120210115055011          0000000004                                                                                                                                                                                                                                                          
SOHDTA20210115055011PUMA           D6001                                                                                                      2021011505501120210115055011          0000000001                                                                                                                                                                                                                                                          
SOHDTA20210115055011PUMA           D6001                                                                                                      2021011505501120210115055011          0000000011                                                                                                                                                                                                                                                          
SOHDTA20210115055011PUMA                                                                                                                      2021011505501120210115055011          0000000005                                                                                                                                                                                                                                                          
SOHDTA20210115055011PUMA           D6001                                                                                                      2021011505501120210115055011          0000000002                                                                                                                                                                                                                                                          
SOHDTA20210115055011PUMA           D6001                                                                                                      2021011505501120210115055011          0000000004                                                                                                                                                                                                                                                          
SOHDTA20210115055011PUMA           D6001                                                                                                      2021011505501120210115055011          0000000001                                                                                                                                                                                                                                                          
SOHDTA20210115055011PUMA           D6001                                                                                                      2021011505501120210115055011          0000000010                                                                                                                                                                                                                                                          
SOHDTA20210115055011PUMA           D6001                                                                                                      2021011505501120210115055011          0000000005                                                                                                                                                                                                                                                          
SOHDTA20210115055011PUMA           D6001                                                                                                      2021011505501120210115055011          0000000005                                                                                                                                                                                                                                                          
SOHDTA20210115055011PUMA           D6001                                                                                                      2021011505501120210115055011          0000000006                                                                                                                                                                                                                                                          
SOHDTA20210115055011PUMA           D6001                                                                                                      2021011505501120210115055011          0000000004                                                                                                                                                                                                                                                          
SOHDTA20210115055011PUMA           D6001                                                                                                      2021011505501120210115055011          0000000005                                                                                                                                                                                                                                                          
SOHDTA20210115055011PUMA                                                                                                                      2021011505501120210115055011          0000000004                                                                                                                                                                                                                                                          
SOHDTA20210115055011PUMA           D6001                                                                                                      2021011505501120210115055011          0000000002                                                                                                                                                                                                                                                          
SOHDTA20210115055011PUMA                                                                                                                      2021011505501120210115055011          0000000002                                                                                                                                                                                                                                                          
SOHDTA20210115055011PUMA           D6001                                                                                                      2021011505501120210115055011          0000000001                                                                                                                                                                                                                                                          
SOHDTA20210115055011PUMA           D6001                                                                                                      2021011505501120210115055011          0000000002                                                                                                                                                                                                                                                          
SOHDTA20210115055011PUMA                                                                                                                      2021011505501120210115055011          0000000001                                                                                                                                                                                                                                                          
SOHDTA20210115055011PUMA                                                                                                                      2021011505501120210115055011          0000000002                                                                                                                                                                                                                                                          
SOHDTA20210115055011PUMA           D7001                                                                                                      2021011505501120210115055011          0000000001                                                                                                                                                                                                                                                          
SOHDTA20210115055011PUMA           D7001                                                                                                      2021011505501120210115055011          0000000003                                                                                                                                                                                                                                                          
SOHDTA20210115055011PUMA           D6001                                                                                                      2021011505501120210115055011          0000000006                                                                                                                                                                                                                                                          
SOHDTA20210115055011PUMA           D6001                                                                                                      2021011505501120210115055011          0000000001                                                                                                                                                                                                                                                          
SOHDTA20210115055011PUMA           D6001          190371020170                                                                                2021011505501120210115055011          0000000003                                                                                                                                                                                                                                                          
SOHDTA20210115055011PUMA           D6001          190371020180                                                                                2021011505501120210115055011          0000000003                                                                                                                                                                                                                                                          
SOHDTA20210115055011PUMA           D6001          190371020190                                                                                2021011505501120210115055011          0000000002                                                                                                                                                                                                                                                          
SOHDTA20210115055011PUMA           D6001          190371020200                                                                                2021011505501120210115055011          0000000004                                                                                                                                                                                                                                                          
SOHDTA20210115055011PUMA           D6001          190371020210                                                                                2021011505501120210115055011          0000000002                                                                                                                                                                                                                                                          
SOHDTA20210115055011PUMA                                                                                                                      2021011505501120210115055011          0000000001                                                                                                                                                                                                                                                          
SOHDTA20210115055011PUMA           D6001          021766010100                                                                                2021011505501120210115055011          0000000105                                                                                                                                                                                                                                                          
SOHDTA20210115055011PUMA           D6001          190371020160                                                                                2021011505501120210115055011          0000000105                                                                                                                                                                                                                                                          
SOHDTA20210115055011PUMA           D6001          190371020160                                                                                2021011505501120210115055011          0000000005                                                                                                                                                                                                                                                          
SOHDTA20210115055011PUMA           D6001          190371020160                                                                                2021011505501120210115055011          0000000050                                                                                                                                                                                                                                                          
SOHDTA20210115055011PUMA           D6001          190371020190                                                                                2021011505501120210115055011          0000000001                                                                                                                                                                                                                                                          
SOHDTA20210115055011PUMA           D6001          190371020200                                                                                2021011505501120210115055011          0000000001                                                                                                                                                                                                                                                          
SOHDTA20210115055011PUMA           D6001          572435060120                                                                                2021011505501120210115055011          0000000002                                                                                                                                                                                                                                                          
SOHDTA20210115055011PUMA           D7001          192575030290                                                                                2021011505501120210115055011          0000000100                                                                                                                                                                                                                                                          
SOHDTA20210115055011PUMA           D7001          192575030240                                                                                2021011505501120210115055011          0000000100                                                                                                                                                                                                                                                          
SOHDTA20210115055011PUMA           D7001          192575030230                                                                                2021011505501120210115055011          0000000100                                                                                                                                                                                                                                                          
SOHDTA20210115055011PUMA           D7001          192575030180                                                                                2021011505501120210115055011          0000000100                                                                                                                                                                                                                                                          
SOHDTA20210115055011PUMA           D7001          192575030220                                                                                2021011505501120210115055011          0000000100                                                                                                                                                                                                                                                          
SOHDTA20210115055011PUMA           D7001          192575030280                                                                                2021011505501120210115055011          0000000100                                                                                                                                                                                                                                                          
SOHDTA20210115055011PUMA           D7001          192575030250                                                                                2021011505501120210115055011          0000000100                                                                                                                                                                                                                                                          
SOHDTA20210115055011PUMA           D7001          021766010100                                                                                2021011505501120210115055011          0000000094                                                                                                                                                                                                                                                          
SOHDTA20210115055011PUMA           D7001          192575030260                                                                                2021011505501120210115055011          0000000100                                                                                                                                                                                                                                                          
SOHDTA20210115055011PUMA           D7001          192575030210                                                                                2021011505501120210115055011          0000000100                                                                                                                                                                                                                                                          
SOHDTA20210115055011PUMA           D7001          192575030160                                                                                2021011505501120210115055011          0000000100                                                                                                                                                                                                                                                          
SOHDTA20210115055011PUMA           D7001          192575030200                                                                                2021011505501120210115055011          0000000100                                                                                                                                                                                                                                                          
SOHDTA20210115055011PUMA           D7001          192575030170                                                                                2021011505501120210115055011          0000000100                                                                                                                                                                                                                                                          
SOHDTA20210115055011PUMA           D6001          190371020220                                                                                2021011505501120210115055011          0000000095                                                                                                                                                                                                                                                          
SOHDTA20210115055011PUMA           D6001          192575030290                                                                                2021011505501120210115055011          0000000100                                                                                                                                                                                                                                                          
SOHDTA20210115055011PUMA           D6001          192575030240                                                                                2021011505501120210115055011          0000000100                                                                                                                                                                                                                                                          
SOHDTA20210115055011PUMA           D6001          190371020170                                                                                2021011505501120210115055011          0000000095                                                                                                                                                                                                                                                          
SOHDTA20210115055011PUMA           D6001          190371020250                                                                                2021011505501120210115055011          0000000100                                                                                                                                                                                                                                                          
SOHDTA20210115055011PUMA           D6001          192575030230                                                                                2021011505501120210115055011          0000000100                                                                                                                                                                                                                                                          
SOHDTA20210115055011PUMA           D6001          572435060120                                                                                2021011505501120210115055011          0000000100                                                                                                                                                                                                                                                          
SOHDTA20210115055011PUMA           D6001          192575030180                                                                                2021011505501120210115055011          0000000100                                                                                                                                                                                                                                                          
SOHDTA20210115055011PUMA           D6001          192575030220                                                                                2021011505501120210115055011          0000000100                                                                                                                                                                                                                                                          
SOHDTA20210115055011PUMA           D6001          572435060150                                                                                2021011505501120210115055011          0000000095                                                                                                                                                                                                                                                          
SOHDTA20210115055011PUMA           D6001          572435060130                                                                                2021011505501120210115055011          0000000100                                                                                                                                                                                                                                                          
SOHDTA20210115055011PUMA           D6001          192575030280                                                                                2021011505501120210115055011          0000000100                                                                                                                                                                                                                                                          
SOHDTA20210115055011PUMA           D6001          190371020230                                                                                2021011505501120210115055011          0000000100                                                                                                                                                                                                                                                          
SOHDTA20210115055011PUMA           D6001          190371020290                                                                                2021011505501120210115055011          0000000100                                                                                                                                                                                                                                                          
SOHDTA20210115055011PUMA           D6001          190371020210                                                                                2021011505501120210115055011          0000000100                                                                                                                                                                                                                                                          
SOHDTA20210115055011PUMA           D6001          190371020190                                                                                2021011505501120210115055011          0000000100                                                                                                                                                                                                                                                          
SOHDTA20210115055011PUMA           D6001          192575030250                                                                                2021011505501120210115055011          0000000100                                                                                                                                                                                                                                                          
SOHDTA20210115055011PUMA           D6001          572435060140                                                                                2021011505501120210115055011          0000000100                                                                                                                                                                                                                                                          
SOHDTA20210115055011PUMA           D6001          572435060170                                                                                2021011505501120210115055011          0000000100                                                                                                                                                                                                                                                          
SOHDTA20210115055011PUMA           D6001          192575030260                                                                                2021011505501120210115055011          0000000100                                                                                                                                                                                                                                                          
SOHDTA20210115055011PUMA           D6001          192575030210                                                                                2021011505501120210115055011          0000000100                                                                                                                                                                                                                                                          
SOHDTA20210115055011PUMA           D6001          190371020280                                                                                2021011505501120210115055011          0000000100                                                                                                                                                                                                                                                          
SOHDTA20210115055011PUMA           D6001          190371020180                                                                                2021011505501120210115055011          0000000100                                                                                                                                                                                                                                                          
SOHDTA20210115055011PUMA           D6001          572435060160                                                                                2021011505501120210115055011          0000000100                                                                                                                                                                                                                                                          
SOHDTA20210115055011PUMA           D6001          192575030160                                                                                2021011505501120210115055011          0000000100                                                                                                                                                                                                                                                          
SOHDTA20210115055011PUMA           D6001          190371020240                                                                                2021011505501120210115055011          0000000100                                                                                                                                                                                                                                                          
SOHDTA20210115055011PUMA           D6001          190371020200                                                                                2021011505501120210115055011          0000000100                                                                                                                                                                                                                                                          
SOHDTA20210115055011PUMA           D6001          192575030200                                                                                2021011505501120210115055011          0000000100                                                                                                                                                                                                                                                          
SOHDTA20210115055011PUMA           D6001          192575030170                                                                                2021011505501120210115055011          0000000100                                                                                                                                                                                                                                                          
SOHDTA20210115055011PUMA           D6001          192575030190                                                                                2021011505501120210115055011          0000000100                                                                                                                                                                                                                                                          
SOHDTA20210115055011PUMA           D6001          190371020260                                                                                2021011505501120210115055011          0000000095                                                                                                                                                                                                                                                          
SOHDTA20210115055011PUMA           D7001          190371020220                                                                                2021011505501120210115055011          0000000200                                                                                                                                                                                                                                                          
SOHDTA20210115055011PUMA           D7001          192575030290                                                                                2021011505501120210115055011          0000000100                                                                                                                                                                                                                                                          
SOHDTA20210115055011PUMA           D7001          192575030240                                                                                2021011505501120210115055011          0000000100                                                                                                                                                                                                                                                          
SOHDTA20210115055011PUMA           D7001          190371020170                                                                                2021011505501120210115055011          0000000197                                                                                                                                                                                                                                                          
SOHDTA20210115055011PUMA           D7001          190371020250                                                                                2021011505501120210115055011          0000000200                                                                                                                                                                                                                                                          
SOHDTA20210115055011PUMA           D7001          192575030230                                                                                2021011505501120210115055011          0000000100                                                                                                                                                                                                                                                          
SOHDTA20210115055011PUMA           D7001          190371020160                                                                                2021011505501120210115055011          0000000199                                                                                                                                                                                                                                                          
SOHDTA20210115055011PUMA           D7001          572435060120                                                                                2021011505501120210115055011          0000000200                                                                                                                                                                                                                                                          
SOHDTA20210115055011PUMA           D7001          192575030180                                                                                2021011505501120210115055011          0000000100                                                                                                                                                                                                                                                          
SOHDTA20210115055011PUMA           D7001          192575030220                                                                                2021011505501120210115055011          0000000100                                                                                                                                                                                                                                                          
SOHDTA20210115055011PUMA           D7001          572435060150                                                                                2021011505501120210115055011          0000000200                                                                                                                                                                                                                                                          
SOHDTA20210115055011PUMA           D7001          572435060130                                                                                2021011505501120210115055011          0000000200                                                                                                                                                                                                                                                          
SOHDTA20210115055011PUMA           D7001          192575030280                                                                                2021011505501220210115055012          0000000100                                                                                                                                                                                                                                                          
SOHDTA20210115055012PUMA           D7001          190371020230                                                                                2021011505501220210115055012          0000000200                                                                                                                                                                                                                                                          
SOHDTA20210115055012PUMA           D7001          190371020290                                                                                2021011505501220210115055012          0000000200                                                                                                                                                                                                                                                          
SOHDTA20210115055012PUMA           D7001          190371020210                                                                                2021011505501220210115055012          0000000200                                                                                                                                                                                                                                                          
SOHDTA20210115055012PUMA           D7001          190371020190                                                                                2021011505501220210115055012          0000000200                                                                                                                                                                                                                                                          
SOHDTA20210115055012PUMA           D7001          192575030250                                                                                2021011505501220210115055012          0000000100                                                                                                                                                                                                                                                          
SOHDTA20210115055012PUMA           D7001          021766010100                                                                                2021011505501220210115055012          0000000100                                                                                                                                                                                                                                                          
SOHDTA20210115055012PUMA           D7001          572435060140                                                                                2021011505501220210115055012          0000000200                                                                                                                                                                                                                                                          
SOHDTA20210115055012PUMA           D7001          572435060170                                                                                2021011505501220210115055012          0000000200                                                                                                                                                                                                                                                          
SOHDTA20210115055012PUMA           D7001          192575030260                                                                                2021011505501220210115055012          0000000100                                                                                                                                                                                                                                                          
SOHDTA20210115055012PUMA           D7001          192575030210                                                                                2021011505501220210115055012          0000000100                                                                                                                                                                                                                                                          
SOHDTA20210115055012PUMA           D7001          190371020280                                                                                2021011505501220210115055012          0000000200                                                                                                                                                                                                                                                          
SOHDTA20210115055012PUMA           D7001          190371020180                                                                                2021011505501220210115055012          0000000200                                                                                                                                                                                                                                                          
SOHDTA20210115055012PUMA           D7001          572435060160                                                                                2021011505501220210115055012          0000000200                                                                                                                                                                                                                                                          
SOHDTA20210115055012PUMA           D7001          192575030160                                                                                2021011505501220210115055012          0000000100                                                                                                                                                                                                                                                          
SOHDTA20210115055012PUMA           D7001          190371020240                                                                                2021011505501220210115055012          0000000200                                                                                                                                                                                                                                                          
SOHDTA20210115055012PUMA           D7001          190371020200                                                                                2021011505501220210115055012          0000000200                                                                                                                                                                                                                                                          
SOHDTA20210115055012PUMA           D7001          192575030200                                                                                2021011505501220210115055012          0000000100                                                                                                                                                                                                                                                          
SOHDTA20210115055012PUMA           D7001          192575030170                                                                                2021011505501220210115055012          0000000100                                                                                                                                                                                                                                                          
SOHDTA20210115055012PUMA           D7001          192575030190                                                                                2021011505501220210115055012          0000000100                                                                                                                                                                                                                                                          
SOHDTA20210115055012PUMA           D7001          190371020260                                                                                2021011505501220210115055012          0000000200                                                                                                                                                                                                                                                          
SOHDTA20210115055012PUMA           D7001          190371020220                                                                                2021011505501220210115055012          0000000200                                                                                                                                                                                                                                                          
SOHDTA20210115055012PUMA           D7001          192575030290                                                                                2021011505501220210115055012          0000000100                                                                                                                                                                                                                                                          
SOHDTA20210115055012PUMA           D7001          192575030240                                                                                2021011505501220210115055012          0000000200                                                                                                                                                                                                                                                          
SOHDTA20210115055012PUMA           D7001          190371020170                                                                                2021011505501220210115055012          0000000200                                                                                                                                                                                                                                                          
SOHDTA20210115055012PUMA           D7001          190371020250                                                                                2021011505501220210115055012          0000000200                                                                                                                                                                                                                                                          
SOHDTA20210115055012PUMA           D7001          192575030230                                                                                2021011505501220210115055012          0000000200                                                                                                                                                                                                                                                          
SOHDTA20210115055012PUMA           D7001          190371020160                                                                                2021011505501220210115055012          0000000200                                                                                                                                                                                                                                                          
SOHDTA20210115055012PUMA           D7001          572435060120                                                                                2021011505501220210115055012          0000000200                                                                                                                                                                                                                                                          
SOHDTA20210115055012PUMA           D7001          192575030180                                                                                2021011505501220210115055012          0000000200                                                                                                                                                                                                                                                          
SOHDTA20210115055012PUMA           D7001          192575030220                                                                                2021011505501220210115055012          0000000200                                                                                                                                                                                                                                                          
SOHDTA20210115055012PUMA           D7001          572435060150                                                                                2021011505501220210115055012          0000000200                                                                                                                                                                                                                                                          
SOHDTA20210115055012PUMA           D7001          572435060130                                                                                2021011505501220210115055012          0000000200                                                                                                                                                                                                                                                          
SOHDTA20210115055012PUMA           D7001          192575030280                                                                                2021011505501220210115055012          0000000100                                                                                                                                                                                                                                                          
SOHDTA20210115055012PUMA           D7001          190371020230                                                                                2021011505501220210115055012          0000000200                                                                                                                                                                                                                                                          
SOHDTA20210115055012PUMA           D7001          190371020290                                                                                2021011505501220210115055012          0000000200                                                                                                                                                                                                                                                          
SOHDTA20210115055012PUMA           D7001          190371020210                                                                                2021011505501220210115055012          0000000200                                                                                                                                                                                                                                                          
SOHDTA20210115055012PUMA           D7001          190371020190                                                                                2021011505501220210115055012          0000000200                                                                                                                                                                                                                                                          
SOHDTA20210115055012PUMA           D7001          192575030250                                                                                2021011505501220210115055012          0000000200                                                                                                                                                                                                                                                          
SOHDTA20210115055012PUMA           D7001          021766010100                                                                                2021011505501220210115055012          0000000200                                                                                                                                                                                                                                                          
SOHDTA20210115055012PUMA           D7001          572435060140                                                                                2021011505501220210115055012          0000000200                                                                                                                                                                                                                                                          
SOHDTA20210115055012PUMA           D7001          572435060170                                                                                2021011505501220210115055012          0000000200                                                                                                                                                                                                                                                          
SOHDTA20210115055012PUMA           D7001          192575030260                                                                                2021011505501220210115055012          0000000200                                                                                                                                                                                                                                                          
SOHDTA20210115055012PUMA           D7001          192575030210                                                                                2021011505501220210115055012          0000000200                                                                                                                                                                                                                                                          
SOHDTA20210115055012PUMA           D7001          190371020280                                                                                2021011505501220210115055012          0000000200                                                                                                                                                                                                                                                          
SOHDTA20210115055012PUMA           D7001          190371020180                                                                                2021011505501220210115055012          0000000200                                                                                                                                                                                                                                                          
SOHDTA20210115055012PUMA           D7001          572435060160                                                                                2021011505501220210115055012          0000000200                                                                                                                                                                                                                                                          
SOHDTA20210115055012PUMA           D7001          192575030160                                                                                2021011505501220210115055012          0000000100                                                                                                                                                                                                                                                          
SOHDTA20210115055012PUMA           D7001          190371020240                                                                                2021011505501220210115055012          0000000200                                                                                                                                                                                                                                                          
SOHDTA20210115055012PUMA           D7001          190371020200                                                                                2021011505501220210115055012          0000000200                                                                                                                                                                                                                                                          
SOHDTA20210115055012PUMA           D7001          192575030200                                                                                2021011505501220210115055012          0000000200                                                                                                                                                                                                                                                          
SOHDTA20210115055012PUMA           D7001          192575030170                                                                                2021011505501220210115055012          0000000100                                                                                                                                                                                                                                                          
SOHDTA20210115055012PUMA           D7001          192575030190                                                                                2021011505501220210115055012          0000000200                                                                                                                                                                                                                                                          
SOHDTA20210115055012PUMA           D7001          190371020260                                                                                2021011505501220210115055012          0000000200                                                                                                                                                                                                                                                          
SOHDTA20210115055012PUMA           D7001          192575030190                                                                                2021011505501220210115055012          0000000100                                                                                                                                                                                                                                                          
SOHDTA20210115055012PUMA           D7001          192575030290                                                                                2021011505501220210115055012          0000000100                                                                                                                                                                                                                                                          
SOHDTA20210115055012PUMA           D7001          192575030280                                                                                2021011505501220210115055012          0000000100                                                                                                                                                                                                                                                          
SOHDTA20210115055012PUMA           D7001          192575030160                                                                                2021011505501220210115055012          0000000100                                                                                                                                                                                                                                                          
SOHDTA20210115055012PUMA           D7001          192575030170                                                                                2021011505501220210115055012          0000000100                                                                                                                                                                                                                                                          
SOHDTA20210115055012PUMA           D7001          190371020160                                                                                2021011505501220210115055012          0000000001                                                                                                                                                                                                                                                          
SOHDTA20210115055012PUMA           D7001          190371020170                                                                                2021011505501220210115055012          0000000003                                                                                                                                                                                                                                                          
SOHDTA20210115055012PUMA           D7001          572435060150                                                                                2021011505501220210115055012          0000000005                                                                                                                                                                                                                                                          
SOHDTA20210115055012PUMA           D7001          190371020160                                                                                2021011505501220210115055012          0000000005                                                                                                                                                                                                                                                          
SOHDTA20210115055012PUMA           D7001          190371020170                                                                                2021011505501220210115055012          0000000005                                                                                                                                                                                                                                                          
SOHDTA20210115055012PUMA           D7001          190371020220                                                                                2021011505501220210115055012          0000000005                                                                                                                                                                                                                                                          
SOHDTA20210115055012PUMA           D7001          190371020260                                                                                2021011505501220210115055012          0000000005                                                                                                                                                                                                                                                          
SOHTR0000000164
