WMSITR    O 20210127111023PUMA                CN   Inventory Transaction Outbound
ITRHDA          ADJ0000008763PUMA           D6001          20210127105523                    ADJ3006                                                                                                                                                                                                                                                                                                                                                                            
ITRDTA             ADJ0000008763     PUMA           852233020130                                              -    0000000001                                                                                            202101271055233006                                                                                                                                                                                                                                                                                                        
ITRDTA             ADJ0000008763     PUMA           852233020110                                              -    0000000001                                                                                            202101271055233006                                                                                                                                                                                                                                                                                                        
ITRDTA             ADJ0000008763     PUMA           852233020160                                              -    0000000001                                                                                            202101271055233006                                                                                                                                                                                                                                                                                                        
ITRDTA             ADJ0000008763     PUMA           852233020120                                              +    0000000001                                                                                            202101271055233006                                                                                                                                                                                                                                                                                                        
ITRDTA             ADJ0000008763     PUMA           852233020140                                              +    0000000001                                                                                            202101271055233006                                                                                                                                                                                                                                                                                                        
ITRDTA             ADJ0000008763     PUMA           852233020150                                              +    0000000001                                                                                            202101271055233006                                                                                                                                                                                                                                                                                                        
ITRDTA             ADJ0000008763     PUMA           853130020100                                              +    0000000001                                                                                            202101271055233006                                                                                                                                                                                                                                                                                                        
ITRTR0000000008
