WMSSOHO 20210127020754PUMA                CN   SOH Outbound
SOHDTA20210127020754PUMA           D6001          852233020120                                                                                2021012702075420210127020754          0000000001                                                                                                                                                                                                                                                          
SOHDTA20210127020754PUMA           D6001          852233020140                                                                                2021012702075420210127020754          0000000001                                                                                                                                                                                                                                                          
SOHDTA20210127020754PUMA           D6001          852233020150                                                                                2021012702075420210127020754          0000000001                                                                                                                                                                                                                                                          
SOHDTA20210127020754PUMA           D6001          853130020100                                                                                2021012702075420210127020754          0000000001                                                                                                                                                                                                                                                          
SOHDTA20210127020754PUMA           D7002          852233020120                                                                                2021012702075420210127020754          0000000001                                                                                                                                                                                                                                                          
SOHDTA20210127020754PUMA           D7002          852233020140                                                                                2021012702075420210127020754          0000000001                                                                                                                                                                                                                                                          
SOHDTA20210127020754PUMA           D7002          852233020150                                                                                2021012702075420210127020754          0000000001                                                                                                                                                                                                                                                          
SOHDTA20210127020754PUMA           D7002          853130020100                                                                                2021012702075420210127020754          0000000001                                                                                                                                                                                                                                                          
SOHDTA20210127020754PUMA           D7001          577123110100                                                                                2021012702075420210127020754          0000000001                                                                                                                                                                                                                                                          
SOHDTA20210127020754PUMA           D7002          577123110110                                                                                2021012702075420210127020754          0000000001                                                                                                                                                                                                                                                          
SOHDTA20210127020754PUMA           D6001          577123110100                                                                                2021012702075420210127020754          0000001000                                                                                                                                                                                                                                                          
SOHDTA20210127020754PUMA           D6001          577124360130                                                                                2021012702075420210127020754          0000001000                                                                                                                                                                                                                                                          
SOHDTA20210127020754PUMA           D6001          577123670160                                                                                2021012702075420210127020754          0000001000                                                                                                                                                                                                                                                          
SOHDTA20210127020754PUMA           D6001          577124360120                                                                                2021012702075420210127020754          0000001000                                                                                                                                                                                                                                                          
SOHDTA20210127020754PUMA           D6001          577124360110                                                                                2021012702075420210127020754          0000001000                                                                                                                                                                                                                                                          
SOHDTA20210127020754PUMA           D6001          577124360150                                                                                2021012702075420210127020754          0000001000                                                                                                                                                                                                                                                          
SOHDTA20210127020754PUMA           D6001          577123110110                                                                                2021012702075420210127020754          0000001000                                                                                                                                                                                                                                                          
SOHDTA20210127020754PUMA           D6001          577124360140                                                                                2021012702075420210127020754          0000001000                                                                                                                                                                                                                                                          
SOHDTA20210127020754PUMA           D6001          577123110160                                                                                2021012702075420210127020754          0000001000                                                                                                                                                                                                                                                          
SOHDTA20210127020754PUMA           D6001          577123670130                                                                                2021012702075420210127020754          0000001000                                                                                                                                                                                                                                                          
SOHDTA20210127020754PUMA           D6001          577123110150                                                                                2021012702075420210127020754          0000001000                                                                                                                                                                                                                                                          
SOHDTA20210127020754PUMA           D6001          577123110120                                                                                2021012702075420210127020754          0000001000                                                                                                                                                                                                                                                          
SOHDTA20210127020754PUMA           D6001          577123670150                                                                                2021012702075420210127020754          0000001000                                                                                                                                                                                                                                                          
SOHDTA20210127020754PUMA           D6001          577123670100                                                                                2021012702075420210127020754          0000001000                                                                                                                                                                                                                                                          
SOHDTA20210127020754PUMA           D6001          577123670140                                                                                2021012702075420210127020754          0000001000                                                                                                                                                                                                                                                          
SOHDTA20210127020754PUMA           D6001          577123670120                                                                                2021012702075420210127020754          0000001000                                                                                                                                                                                                                                                          
SOHDTA20210127020754PUMA           D6001          577123110130                                                                                2021012702075420210127020754          0000001000                                                                                                                                                                                                                                                          
SOHDTA20210127020754PUMA           D6001          577123110140                                                                                2021012702075420210127020754          0000001000                                                                                                                                                                                                                                                          
SOHDTA20210127020754PUMA           D6001          577123670110                                                                                2021012702075420210127020754          0000001000                                                                                                                                                                                                                                                          
SOHDTA20210127020754PUMA           D6001          576518010100                                                                                2021012702075420210127020754          0000000990                                                                                                                                                                                                                                                          
SOHDTA20210127020754PUMA           D6001          576518010150                                                                                2021012702075420210127020754          0000000990                                                                                                                                                                                                                                                          
SOHDTA20210127020754PUMA           D6001          576518010160                                                                                2021012702075420210127020754          0000001000                                                                                                                                                                                                                                                          
SOHDTA20210127020754PUMA           D6001          576518010110                                                                                2021012702075420210127020754          0000000990                                                                                                                                                                                                                                                          
SOHDTA20210127020754PUMA           D6001          576518010130                                                                                2021012702075420210127020754          0000000990                                                                                                                                                                                                                                                          
SOHDTA20210127020754PUMA           D6001          576518010120                                                                                2021012702075420210127020754          0000000990                                                                                                                                                                                                                                                          
SOHDTA20210127020754PUMA           D6001          576518010140                                                                                2021012702075420210127020754          0000000990                                                                                                                                                                                                                                                          
SOHDTA20210127020754PUMA           D6001          021766010100                                                                                2021012702075420210127020754          0000001000                                                                                                                                                                                                                                                          
SOHDTA20210127020754PUMA           D6001          189904020100                                                                                2021012702075420210127020754          0000001000                                                                                                                                                                                                                                                          
SOHDTA20210127020754PUMA           D6001          189904020110                                                                                2021012702075420210127020754          0000001000                                                                                                                                                                                                                                                          
SOHDTA20210127020754PUMA           D6001          189904020120                                                                                2021012702075420210127020754          0000001000                                                                                                                                                                                                                                                          
SOHDTA20210127020754PUMA           D6001          189904020130                                                                                2021012702075420210127020754          0000001000                                                                                                                                                                                                                                                          
SOHDTA20210127020754PUMA           D6001          189904020140                                                                                2021012702075420210127020754          0000001000                                                                                                                                                                                                                                                          
SOHDTA20210127020754PUMA           D6001          189904020150                                                                                2021012702075420210127020754          0000001000                                                                                                                                                                                                                                                          
SOHDTA20210127020754PUMA           D6001          192575030210                                                                                2021012702075420210127020754          0000001000                                                                                                                                                                                                                                                          
SOHDTA20210127020754PUMA           D6001          192575030200                                                                                2021012702075420210127020754          0000001000                                                                                                                                                                                                                                                          
SOHDTA20210127020754PUMA           D6001          192575030180                                                                                2021012702075420210127020754          0000001000                                                                                                                                                                                                                                                          
SOHDTA20210127020754PUMA           D6001          192575030190                                                                                2021012702075420210127020754          0000001000                                                                                                                                                                                                                                                          
SOHDTA20210127020754PUMA           D6001          192575030220                                                                                2021012702075420210127020754          0000001000                                                                                                                                                                                                                                                          
SOHDTA20210127020754PUMA           D6001          192575030250                                                                                2021012702075420210127020754          0000001000                                                                                                                                                                                                                                                          
SOHDTA20210127020754PUMA           D6001          192575030230                                                                                2021012702075420210127020754          0000001000                                                                                                                                                                                                                                                          
SOHDTA20210127020754PUMA           D6001          192575030260                                                                                2021012702075420210127020754          0000001000                                                                                                                                                                                                                                                          
SOHDTA20210127020754PUMA           D6001          192575030240                                                                                2021012702075420210127020754          0000001000                                                                                                                                                                                                                                                          
SOHDTA20210127020754PUMA           D6001          192575030280                                                                                2021012702075420210127020754          0000001000                                                                                                                                                                                                                                                          
SOHDTA20210127020754PUMA           D6001          192575030290                                                                                2021012702075420210127020754          0000001000                                                                                                                                                                                                                                                          
SOHDTA20210127020754PUMA           D6001          192575030170                                                                                2021012702075420210127020754          0000001000                                                                                                                                                                                                                                                          
SOHDTA20210127020754PUMA           D6001          192575030160                                                                                2021012702075420210127020754          0000001000                                                                                                                                                                                                                                                          
SOHDTA20210127020754PUMA           D6001          907111020100                                                                                2021012702075420210127020754          0000000999                                                                                                                                                                                                                                                          
SOHDTA20210127020754PUMA           D6001          572435060120                                                                                2021012702075420210127020754          0000001000                                                                                                                                                                                                                                                          
SOHDTA20210127020754PUMA           D6001          572435060140                                                                                2021012702075420210127020754          0000001000                                                                                                                                                                                                                                                          
SOHDTA20210127020754PUMA           D6001          572435060160                                                                                2021012702075420210127020754          0000001000                                                                                                                                                                                                                                                          
SOHDTA20210127020754PUMA           D6001          355462670180                                                                                2021012702075420210127020754          0000001000                                                                                                                                                                                                                                                          
SOHDTA20210127020754PUMA           D6001          355462670190                                                                                2021012702075420210127020754          0000001000                                                                                                                                                                                                                                                          
SOHDTA20210127020754PUMA           D6001          355462670200                                                                                2021012702075420210127020754          0000001000                                                                                                                                                                                                                                                          
SOHDTA20210127020754PUMA           D6001          355462670210                                                                                2021012702075420210127020754          0000001000                                                                                                                                                                                                                                                          
SOHDTA20210127020754PUMA           D6001          355462670220                                                                                2021012702075420210127020754          0000001000                                                                                                                                                                                                                                                          
SOHDTA20210127020754PUMA           D6001          355462670230                                                                                2021012702075420210127020754          0000001000                                                                                                                                                                                                                                                          
SOHDTA20210127020754PUMA           D6001          355462670240                                                                                2021012702075420210127020754          0000001000                                                                                                                                                                                                                                                          
SOHDTA20210127020754PUMA           D6001          355462670250                                                                                2021012702075420210127020754          0000001000                                                                                                                                                                                                                                                          
SOHDTA20210127020754PUMA           D6001          365758020200                                                                                2021012702075420210127020754          0000001000                                                                                                                                                                                                                                                          
SOHDTA20210127020754PUMA           D6001          365758020220                                                                                2021012702075420210127020754          0000001000                                                                                                                                                                                                                                                          
SOHDTA20210127020754PUMA           D6001          365758020160                                                                                2021012702075420210127020754          0000001000                                                                                                                                                                                                                                                          
SOHDTA20210127020754PUMA           D6001          365758020330                                                                                2021012702075420210127020754          0000001000                                                                                                                                                                                                                                                          
SOHDTA20210127020754PUMA           D6001          365758020260                                                                                2021012702075420210127020754          0000001000                                                                                                                                                                                                                                                          
SOHDTA20210127020754PUMA           D6001          365758020340                                                                                2021012702075420210127020754          0000001000                                                                                                                                                                                                                                                          
SOHDTA20210127020754PUMA           D6001          365758020280                                                                                2021012702075420210127020754          0000001000                                                                                                                                                                                                                                                          
SOHDTA20210127020754PUMA           D6001          365758020300                                                                                2021012702075420210127020754          0000001000                                                                                                                                                                                                                                                          
SOHDTA20210127020754PUMA           D6001          365758020180                                                                                2021012702075420210127020754          0000001000                                                                                                                                                                                                                                                          
SOHDTA20210127020754PUMA           D6001          365758020320                                                                                2021012702075420210127020754          0000001000                                                                                                                                                                                                                                                          
SOHDTA20210127020754PUMA           D6001          365758020140                                                                                2021012702075420210127020754          0000001000                                                                                                                                                                                                                                                          
SOHDTA20210127020754PUMA           D6001          365758020240                                                                                2021012702075420210127020754          0000001000                                                                                                                                                                                                                                                          
SOHDTA20210127020754PUMA           D6001          851915010130                                                                                2021012702075420210127020754          0000001000                                                                                                                                                                                                                                                          
SOHDTA20210127020754PUMA           D6001          851915010160                                                                                2021012702075420210127020754          0000001000                                                                                                                                                                                                                                                          
SOHDTA20210127020754PUMA           D6001          851915010140                                                                                2021012702075420210127020754          0000001000                                                                                                                                                                                                                                                          
SOHDTA20210127020754PUMA           D6001          851915010120                                                                                2021012702075420210127020754          0000001000                                                                                                                                                                                                                                                          
SOHDTA20210127020754PUMA           D6001          851915010100                                                                                2021012702075420210127020754          0000001000                                                                                                                                                                                                                                                          
SOHDTA20210127020754PUMA           D6001          851915010110                                                                                2021012702075420210127020754          0000001000                                                                                                                                                                                                                                                          
SOHDTA20210127020754PUMA           D6001          851915010150                                                                                2021012702075420210127020754          0000001000                                                                                                                                                                                                                                                          
SOHDTA20210127020754PUMA           D6001          852233020100                                                                                2021012702075420210127020754          0000001000                                                                                                                                                                                                                                                          
SOHDTA20210127020754PUMA           D6001          852233020130                                                                                2021012702075420210127020754          0000000999                                                                                                                                                                                                                                                          
SOHDTA20210127020754PUMA           D6001          852233020110                                                                                2021012702075420210127020754          0000000999                                                                                                                                                                                                                                                          
SOHDTA20210127020754PUMA           D6001          852233020160                                                                                2021012702075420210127020754          0000000999                                                                                                                                                                                                                                                          
SOHDTA20210127020754PUMA           D6001          852233020120                                                                                2021012702075420210127020754          0000001000                                                                                                                                                                                                                                                          
SOHDTA20210127020754PUMA           D6001          852233020140                                                                                2021012702075420210127020754          0000001000                                                                                                                                                                                                                                                          
SOHDTA20210127020754PUMA           D6001          852233020150                                                                                2021012702075420210127020754          0000001000                                                                                                                                                                                                                                                          
SOHDTA20210127020754PUMA           D6001          575661830100                                                                                2021012702075420210127020754          0000000989                                                                                                                                                                                                                                                          
SOHDTA20210127020754PUMA           D6001          575661830110                                                                                2021012702075420210127020754          0000000990                                                                                                                                                                                                                                                          
SOHDTA20210127020754PUMA           D6001          575661830120                                                                                2021012702075420210127020754          0000000990                                                                                                                                                                                                                                                          
SOHDTA20210127020754PUMA           D6001          575661830130                                                                                2021012702075420210127020754          0000000990                                                                                                                                                                                                                                                          
SOHDTA20210127020754PUMA           D6001          575661830140                                                                                2021012702075420210127020754          0000000990                                                                                                                                                                                                                                                          
SOHDTA20210127020754PUMA           D6001          575661830150                                                                                2021012702075420210127020754          0000000990                                                                                                                                                                                                                                                          
SOHDTA20210127020754PUMA           D6001          575661830160                                                                                2021012702075420210127020754          0000000990                                                                                                                                                                                                                                                          
SOHDTA20210127020754PUMA           D6001          853130020130                                                                                2021012702075420210127020754          0000001000                                                                                                                                                                                                                                                          
SOHDTA20210127020754PUMA           D6001          853130020150                                                                                2021012702075420210127020754          0000001000                                                                                                                                                                                                                                                          
SOHDTA20210127020754PUMA           D6001          853130020110                                                                                2021012702075420210127020754          0000001000                                                                                                                                                                                                                                                          
SOHDTA20210127020754PUMA           D6001          853130020100                                                                                2021012702075420210127020754          0000001000                                                                                                                                                                                                                                                          
SOHDTA20210127020754PUMA           D6001          853130020120                                                                                2021012702075420210127020754          0000001000                                                                                                                                                                                                                                                          
SOHDTA20210127020754PUMA           D6001          853130020140                                                                                2021012702075420210127020754          0000001000                                                                                                                                                                                                                                                          
SOHDTA20210127020754PUMA           D6001          853130020160                                                                                2021012702075420210127020754          0000001000                                                                                                                                                                                                                                                          
SOHDTA20210127020754PUMA           D6001          577124360160                                                                                2021012702075420210127020754          0000000999                                                                                                                                                                                                                                                          
SOHDTA20210127020754PUMA           D6001          577124360100                                                                                2021012702075420210127020754          0000001000                                                                                                                                                                                                                                                          
SOHDTA20210127020754PUMA           D6001          572435060150                                                                                2021012702075420210127020754          0000001000                                                                                                                                                                                                                                                          
SOHDTA20210127020754PUMA           D6001          572435060130                                                                                2021012702075420210127020754          0000001000                                                                                                                                                                                                                                                          
SOHDTA20210127020754PUMA           D6001          572435060170                                                                                2021012702075420210127020754          0000001000                                                                                                                                                                                                                                                          
SOHDTA20210127020754PUMA           D6001          362397030140                                                                                2021012702075420210127020754          0000001000                                                                                                                                                                                                                                                          
SOHDTA20210127020754PUMA           D6001          362397030330                                                                                2021012702075420210127020754          0000001000                                                                                                                                                                                                                                                          
SOHDTA20210127020754PUMA           D6001          362397030220                                                                                2021012702075420210127020754          0000001000                                                                                                                                                                                                                                                          
SOHDTA20210127020754PUMA           D6001          362397030240                                                                                2021012702075420210127020754          0000001000                                                                                                                                                                                                                                                          
SOHDTA20210127020754PUMA           D6001          362397030300                                                                                2021012702075420210127020754          0000001000                                                                                                                                                                                                                                                          
SOHDTA20210127020754PUMA           D6001          362397030290                                                                                2021012702075420210127020754          0000001000                                                                                                                                                                                                                                                          
SOHDTA20210127020754PUMA           D6001          362397030150                                                                                2021012702075420210127020754          0000001000                                                                                                                                                                                                                                                          
SOHDTA20210127020754PUMA           D6001          362397030170                                                                                2021012702075420210127020754          0000001000                                                                                                                                                                                                                                                          
SOHDTA20210127020754PUMA           D6001          362397030160                                                                                2021012702075420210127020754          0000001000                                                                                                                                                                                                                                                          
SOHDTA20210127020754PUMA           D6001          362397030180                                                                                2021012702075420210127020754          0000001000                                                                                                                                                                                                                                                          
SOHDTA20210127020754PUMA           D6001          362397030210                                                                                2021012702075420210127020754          0000001000                                                                                                                                                                                                                                                          
SOHDTA20210127020754PUMA           D6001          362397030280                                                                                2021012702075420210127020754          0000001000                                                                                                                                                                                                                                                          
SOHDTA20210127020754PUMA           D6001          362397030260                                                                                2021012702075420210127020754          0000001000                                                                                                                                                                                                                                                          
SOHDTA20210127020754PUMA           D6001          362397030270                                                                                2021012702075420210127020754          0000001000                                                                                                                                                                                                                                                          
SOHDTA20210127020754PUMA           D6001          362397030200                                                                                2021012702075420210127020754          0000001000                                                                                                                                                                                                                                                          
SOHDTA20210127020754PUMA           D6001          362397030320                                                                                2021012702075420210127020754          0000001000                                                                                                                                                                                                                                                          
SOHDTA20210127020754PUMA           D6001          362397030190                                                                                2021012702075420210127020754          0000001000                                                                                                                                                                                                                                                          
SOHDTA20210127020754PUMA           D6001          362397030250                                                                                2021012702075420210127020754          0000001000                                                                                                                                                                                                                                                          
SOHDTA20210127020754PUMA           D6001          362397030230                                                                                2021012702075420210127020754          0000001000                                                                                                                                                                                                                                                          
SOHDTA20210127020754PUMA           D6001          362520020210                                                                                2021012702075420210127020754          0000001000                                                                                                                                                                                                                                                          
SOHDTA20210127020754PUMA           D6001          362520020290                                                                                2021012702075420210127020754          0000001000                                                                                                                                                                                                                                                          
SOHDTA20210127020754PUMA           D6001          362520020200                                                                                2021012702075420210127020754          0000001000                                                                                                                                                                                                                                                          
SOHDTA20210127020754PUMA           D6001          362520010140                                                                                2021012702075420210127020754          0000001000                                                                                                                                                                                                                                                          
SOHDTA20210127020754PUMA           D6001          362520010300                                                                                2021012702075420210127020754          0000001000                                                                                                                                                                                                                                                          
SOHDTA20210127020754PUMA           D6001          362520010210                                                                                2021012702075420210127020754          0000001000                                                                                                                                                                                                                                                          
SOHDTA20210127020754PUMA           D6001          362520010200                                                                                2021012702075420210127020754          0000001000                                                                                                                                                                                                                                                          
SOHDTA20210127020754PUMA           D6001          362520010180                                                                                2021012702075420210127020754          0000001000                                                                                                                                                                                                                                                          
SOHDTA20210127020754PUMA           D6001          362520020280                                                                                2021012702075420210127020754          0000001000                                                                                                                                                                                                                                                          
SOHDTA20210127020754PUMA           D6001          362520020180                                                                                2021012702075420210127020754          0000001000                                                                                                                                                                                                                                                          
SOHDTA20210127020754PUMA           D6001          362520010160                                                                                2021012702075420210127020754          0000001000                                                                                                                                                                                                                                                          
SOHDTA20210127020754PUMA           D6001          362520010230                                                                                2021012702075420210127020754          0000001000                                                                                                                                                                                                                                                          
SOHDTA20210127020754PUMA           D6001          362520020230                                                                                2021012702075420210127020754          0000001000                                                                                                                                                                                                                                                          
SOHDTA20210127020754PUMA           D6001          362520010270                                                                                2021012702075420210127020754          0000001000                                                                                                                                                                                                                                                          
SOHDTA20210127020754PUMA           D6001          362520010250                                                                                2021012702075420210127020754          0000001000                                                                                                                                                                                                                                                          
SOHDTA20210127020754PUMA           D6001          362520010190                                                                                2021012702075420210127020754          0000001000                                                                                                                                                                                                                                                          
SOHDTA20210127020754PUMA           D6001          362520010320                                                                                2021012702075420210127020754          0000001000                                                                                                                                                                                                                                                          
SOHDTA20210127020754PUMA           D6001          362520020140                                                                                2021012702075420210127020754          0000001000                                                                                                                                                                                                                                                          
SOHDTA20210127020754PUMA           D6001          362520020270                                                                                2021012702075420210127020754          0000001000                                                                                                                                                                                                                                                          
SOHDTA20210127020754PUMA           D6001          362520010260                                                                                2021012702075420210127020754          0000001000                                                                                                                                                                                                                                                          
SOHDTA20210127020754PUMA           D6001          362520020220                                                                                2021012702075420210127020754          0000001000                                                                                                                                                                                                                                                          
SOHDTA20210127020754PUMA           D6001          362520010170                                                                                2021012702075420210127020754          0000001000                                                                                                                                                                                                                                                          
SOHDTA20210127020754PUMA           D6001          362520020300                                                                                2021012702075420210127020754          0000001000                                                                                                                                                                                                                                                          
SOHDTA20210127020754PUMA           D6001          362520020170                                                                                2021012702075420210127020754          0000001000                                                                                                                                                                                                                                                          
SOHDTA20210127020754PUMA           D6001          362520020250                                                                                2021012702075420210127020754          0000001000                                                                                                                                                                                                                                                          
SOHDTA20210127020754PUMA           D6001          362520010220                                                                                2021012702075420210127020754          0000001000                                                                                                                                                                                                                                                          
SOHDTA20210127020754PUMA           D6001          362520020320                                                                                2021012702075420210127020754          0000001000                                                                                                                                                                                                                                                          
SOHDTA20210127020754PUMA           D6001          362520020160                                                                                2021012702075420210127020754          0000001000                                                                                                                                                                                                                                                          
SOHDTA20210127020754PUMA           D6001          362520010150                                                                                2021012702075420210127020754          0000001000                                                                                                                                                                                                                                                          
SOHDTA20210127020754PUMA           D6001          362520020240                                                                                2021012702075420210127020754          0000001000                                                                                                                                                                                                                                                          
SOHDTA20210127020754PUMA           D6001          362520020190                                                                                2021012702075420210127020754          0000001000                                                                                                                                                                                                                                                          
SOHDTA20210127020754PUMA           D6001          362520020150                                                                                2021012702075420210127020754          0000001000                                                                                                                                                                                                                                                          
SOHDTA20210127020754PUMA           D6001          362520010280                                                                                2021012702075420210127020754          0000001000                                                                                                                                                                                                                                                          
SOHDTA20210127020754PUMA           D6001          362520020260                                                                                2021012702075420210127020754          0000001000                                                                                                                                                                                                                                                          
SOHDTA20210127020754PUMA           D6001          362520010240                                                                                2021012702075420210127020754          0000001000                                                                                                                                                                                                                                                          
SOHDTA20210127020754PUMA           D6001          362520010290                                                                                2021012702075420210127020754          0000001000                                                                                                                                                                                                                                                          
SOHDTA20210127020754PUMA           D6001          362408010330                                                                                2021012702075420210127020754          0000001000                                                                                                                                                                                                                                                          
SOHDTA20210127020754PUMA           D6001          362408010300                                                                                2021012702075420210127020754          0000001000                                                                                                                                                                                                                                                          
SOHDTA20210127020754PUMA           D6001          362408010170                                                                                2021012702075420210127020754          0000001000                                                                                                                                                                                                                                                          
SOHDTA20210127020754PUMA           D6001          362408010180                                                                                2021012702075420210127020754          0000001000                                                                                                                                                                                                                                                          
SOHDTA20210127020754PUMA           D6001          362408020230                                                                                2021012702075420210127020754          0000001000                                                                                                                                                                                                                                                          
SOHDTA20210127020754PUMA           D6001          362408020160                                                                                2021012702075420210127020754          0000001000                                                                                                                                                                                                                                                          
SOHDTA20210127020754PUMA           D6001          362408010200                                                                                2021012702075420210127020754          0000001000                                                                                                                                                                                                                                                          
SOHDTA20210127020754PUMA           D6001          362408020140                                                                                2021012702075420210127020754          0000001000                                                                                                                                                                                                                                                          
SOHDTA20210127020754PUMA           D6001          362408020270                                                                                2021012702075420210127020754          0000001000                                                                                                                                                                                                                                                          
SOHDTA20210127020754PUMA           D6001          362408010220                                                                                2021012702075420210127020754          0000001000                                                                                                                                                                                                                                                          
SOHDTA20210127020754PUMA           D6001          362408010270                                                                                2021012702075420210127020754          0000001000                                                                                                                                                                                                                                                          
SOHDTA20210127020754PUMA           D6001          362408010280                                                                                2021012702075420210127020754          0000001000                                                                                                                                                                                                                                                          
SOHDTA20210127020754PUMA           D6001          362408020220                                                                                2021012702075420210127020754          0000001000                                                                                                                                                                                                                                                          
SOHDTA20210127020754PUMA           D6001          362408020170                                                                                2021012702075420210127020754          0000001000                                                                                                                                                                                                                                                          
SOHDTA20210127020754PUMA           D6001          362408020180                                                                                2021012702075420210127020754          0000001000                                                                                                                                                                                                                                                          
SOHDTA20210127020754PUMA           D6001          362408010260                                                                                2021012702075420210127020754          0000001000                                                                                                                                                                                                                                                          
SOHDTA20210127020754PUMA           D6001          362408010150                                                                                2021012702075420210127020754          0000001000                                                                                                                                                                                                                                                          
SOHDTA20210127020754PUMA           D6001          362408020150                                                                                2021012702075420210127020754          0000001000                                                                                                                                                                                                                                                          
SOHDTA20210127020754PUMA           D6001          362408020320                                                                                2021012702075420210127020754          0000001000                                                                                                                                                                                                                                                          
SOHDTA20210127020754PUMA           D6001          362408020250                                                                                2021012702075420210127020754          0000001000                                                                                                                                                                                                                                                          
SOHDTA20210127020754PUMA           D6001          362408020210                                                                                2021012702075420210127020754          0000001000                                                                                                                                                                                                                                                          
SOHDTA20210127020754PUMA           D6001          362408010320                                                                                2021012702075420210127020754          0000001000                                                                                                                                                                                                                                                          
SOHDTA20210127020754PUMA           D6001          362408010210                                                                                2021012702075420210127020754          0000001000                                                                                                                                                                                                                                                          
SOHDTA20210127020754PUMA           D6001          362408010190                                                                                2021012702075420210127020754          0000001000                                                                                                                                                                                                                                                          
SOHDTA20210127020754PUMA           D6001          362408010250                                                                                2021012702075420210127020754          0000001000                                                                                                                                                                                                                                                          
SOHDTA20210127020754PUMA           D6001          362408010240                                                                                2021012702075420210127020754          0000001000                                                                                                                                                                                                                                                          
SOHDTA20210127020754PUMA           D6001          362408010230                                                                                2021012702075420210127020754          0000001000                                                                                                                                                                                                                                                          
SOHDTA20210127020754PUMA           D6001          362408020190                                                                                2021012702075420210127020754          0000001000                                                                                                                                                                                                                                                          
SOHDTA20210127020754PUMA           D6001          362408020260                                                                                2021012702075420210127020754          0000001000                                                                                                                                                                                                                                                          
SOHDTA20210127020754PUMA           D6001          362408010290                                                                                2021012702075420210127020754          0000001000                                                                                                                                                                                                                                                          
SOHDTA20210127020754PUMA           D6001          362408020300                                                                                2021012702075420210127020754          0000001000                                                                                                                                                                                                                                                          
SOHDTA20210127020754PUMA           D6001          362408020280                                                                                2021012702075420210127020754          0000001000                                                                                                                                                                                                                                                          
SOHDTA20210127020754PUMA           D6001          362408020240                                                                                2021012702075420210127020754          0000001000                                                                                                                                                                                                                                                          
SOHDTA20210127020754PUMA           D6001          362408010140                                                                                2021012702075420210127020754          0000001000                                                                                                                                                                                                                                                          
SOHDTA20210127020754PUMA           D6001          362408020290                                                                                2021012702075420210127020754          0000001000                                                                                                                                                                                                                                                          
SOHDTA20210127020754PUMA           D6001          362408020330                                                                                2021012702075420210127020754          0000001000                                                                                                                                                                                                                                                          
SOHDTA20210127020754PUMA           D6001          362408020200                                                                                2021012702075420210127020754          0000001000                                                                                                                                                                                                                                                          
SOHDTA20210127020754PUMA           D6001          362408010160                                                                                2021012702075420210127020754          0000001000                                                                                                                                                                                                                                                          
SOHDTA20210127020754PUMA           D6001          189811010170                                                                                2021012702075420210127020754          0000001000                                                                                                                                                                                                                                                          
SOHDTA20210127020754PUMA           D6001          189811010240                                                                                2021012702075420210127020754          0000001000                                                                                                                                                                                                                                                          
SOHDTA20210127020754PUMA           D6001          189811010150                                                                                2021012702075420210127020754          0000001000                                                                                                                                                                                                                                                          
SOHDTA20210127020754PUMA           D6001          189811010210                                                                                2021012702075420210127020754          0000001000                                                                                                                                                                                                                                                          
SOHDTA20210127020754PUMA           D6001          189811010200                                                                                2021012702075420210127020754          0000001000                                                                                                                                                                                                                                                          
SOHDTA20210127020754PUMA           D6001          189811010250                                                                                2021012702075420210127020754          0000001000                                                                                                                                                                                                                                                          
SOHDTA20210127020754PUMA           D6001          189811010180                                                                                2021012702075420210127020754          0000001000                                                                                                                                                                                                                                                          
SOHDTA20210127020754PUMA           D6001          189811010270                                                                                2021012702075420210127020754          0000001000                                                                                                                                                                                                                                                          
SOHDTA20210127020754PUMA           D6001          189811010190                                                                                2021012702075420210127020754          0000001000                                                                                                                                                                                                                                                          
SOHDTA20210127020754PUMA           D6001          189811010160                                                                                2021012702075420210127020754          0000001000                                                                                                                                                                                                                                                          
SOHDTA20210127020754PUMA           D6001          189811010140                                                                                2021012702075420210127020754          0000001000                                                                                                                                                                                                                                                          
SOHDTA20210127020754PUMA           D6001          189811010230                                                                                2021012702075420210127020754          0000001000                                                                                                                                                                                                                                                          
SOHDTA20210127020754PUMA           D6001          189811010220                                                                                2021012702075420210127020754          0000001000                                                                                                                                                                                                                                                          
SOHDTA20210127020754PUMA           D6001          189905010220                                                                                2021012702075420210127020754          0000001000                                                                                                                                                                                                                                                          
SOHDTA20210127020754PUMA           D6001          189905010170                                                                                2021012702075420210127020754          0000001000                                                                                                                                                                                                                                                          
SOHDTA20210127020754PUMA           D6001          189905010240                                                                                2021012702075420210127020754          0000001000                                                                                                                                                                                                                                                          
SOHDTA20210127020754PUMA           D6001          189905010190                                                                                2021012702075420210127020754          0000001000                                                                                                                                                                                                                                                          
SOHDTA20210127020754PUMA           D6001          189905010150                                                                                2021012702075420210127020754          0000001000                                                                                                                                                                                                                                                          
SOHDTA20210127020754PUMA           D6001          189905010160                                                                                2021012702075420210127020754          0000001000                                                                                                                                                                                                                                                          
SOHDTA20210127020754PUMA           D6001          189905010210                                                                                2021012702075420210127020754          0000001000                                                                                                                                                                                                                                                          
