WMSITR    O 20210311072328PUMA                CN   Inventory Transaction Outbound
ITRHDA          IQC0000008784PUMA           D6001D7002     20210311115639                    IQC01                                                                                                                                                                                                                                                                                                                                                                              
ITRDTA             IQC0000008784     PUMA           366487120170                                              +    0000000001                                                                                            2021031111563901                                                                                                                                                                                                                                                                                                          
ITRDTA             IQC0000008784     PUMA           372611060210                                              +    0000000001                                                                                            2021031111563901                                                                                                                                                                                                                                                                                                          
ITRDTA             IQC0000008784     PUMA           366487120160                                              +    0000000001                                                                                            2021031111563901                                                                                                                                                                                                                                                                                                          
ITRDTA             IQC0000008784     PUMA           366805020160                                              +    0000000001                                                                                            2021031111563901                                                                                                                                                                                                                                                                                                          
ITRDTA             IQC0000008784     PUMA           354367220140                                              +    0000000001                                                                                            2021031111563901                                                                                                                                                                                                                                                                                                          
ITRDTA             IQC0000008784     PUMA           372205010180                                              +    0000000001                                                                                            2021031111563901                                                                                                                                                                                                                                                                                                          
ITRDTA             IQC0000008784     PUMA           372611060260                                              +    0000000001                                                                                            2021031111563901                                                                                                                                                                                                                                                                                                          
ITRDTA             IQC0000008784     PUMA           366487080150                                              +    0000000001                                                                                            2021031111563901                                                                                                                                                                                                                                                                                                          
ITRDTA             IQC0000008784     PUMA           366487080170                                              +    0000000001                                                                                            2021031111563901                                                                                                                                                                                                                                                                                                          
ITRDTA             IQC0000008784     PUMA           366487120180                                              +    0000000001                                                                                            2021031111563901                                                                                                                                                                                                                                                                                                          
ITRDTA             IQC0000008784     PUMA           373027050240                                              +    0000000001                                                                                            2021031111563901                                                                                                                                                                                                                                                                                                          
ITRDTA             IQC0000008784     PUMA           363717010260                                              +    0000000001                                                                                            2021031111563901                                                                                                                                                                                                                                                                                                          
ITRTR0000000013
