WMSITR    O 20210311072316PUMA                CN   Inventory Transaction Outbound
ITRHDA          IQC0000008781PUMA           D6001D7001     20210311115639                    IQC01                                                                                                                                                                                                                                                                                                                                                                              
ITRDTA             IQC0000008781     PUMA           580892110120                                              +    0000000001                                                                                            2021031111563901                                                                                                                                                                                                                                                                                                          
ITRDTA             IQC0000008781     PUMA           583828010160                                              +    0000000001                                                                                            2021031111563901                                                                                                                                                                                                                                                                                                          
ITRDTA             IQC0000008781     PUMA           530002050140                                              +    0000000001                                                                                            2021031111563901                                                                                                                                                                                                                                                                                                          
ITRDTA             IQC0000008781     PUMA           581667070150                                              +    0000000001                                                                                            2021031111563901                                                                                                                                                                                                                                                                                                          
ITRDTA             IQC0000008781     PUMA           581650010160                                              +    0000000001                                                                                            2021031111563901                                                                                                                                                                                                                                                                                                          
ITRDTA             IQC0000008781     PUMA           855226010140                                              +    0000000001                                                                                            2021031111563901                                                                                                                                                                                                                                                                                                          
ITRDTA             IQC0000008781     PUMA           582911010120                                              +    0000000001                                                                                            2021031111563901                                                                                                                                                                                                                                                                                                          
ITRDTA             IQC0000008781     PUMA           597344010130                                              +    0000000001                                                                                            2021031111563901                                                                                                                                                                                                                                                                                                          
ITRDTA             IQC0000008781     PUMA           758057030130                                              +    0000000001                                                                                            2021031111563901                                                                                                                                                                                                                                                                                                          
ITRDTA             IQC0000008781     PUMA           530163850120                                              +    0000000001                                                                                            2021031111563901                                                                                                                                                                                                                                                                                                          
ITRDTA             IQC0000008781     PUMA           599062510150                                              +    0000000001                                                                                            2021031111563901                                                                                                                                                                                                                                                                                                          
ITRDTA             IQC0000008781     PUMA           582911010150                                              +    0000000001                                                                                            2021031111563901                                                                                                                                                                                                                                                                                                          
ITRDTA             IQC0000008781     PUMA           907136020120                                              +    0000000001                                                                                            2021031111563901                                                                                                                                                                                                                                                                                                          
ITRDTA             IQC0000008781     PUMA           598136010150                                              +    0000000001                                                                                            2021031111563901                                                                                                                                                                                                                                                                                                          
ITRDTA             IQC0000008781     PUMA           598242320130                                              +    0000000001                                                                                            2021031111563901                                                                                                                                                                                                                                                                                                          
ITRDTA             IQC0000008781     PUMA           596662500100                                              +    0000000001                                                                                            2021031111563901                                                                                                                                                                                                                                                                                                          
ITRDTA             IQC0000008781     PUMA           586594010120                                              +    0000000001                                                                                            2021031111563901                                                                                                                                                                                                                                                                                                          
ITRDTA             IQC0000008781     PUMA           599062510140                                              +    0000000001                                                                                            2021031111563901                                                                                                                                                                                                                                                                                                          
ITRDTA             IQC0000008781     PUMA           585089050150                                              +    0000000001                                                                                            2021031111563901                                                                                                                                                                                                                                                                                                          
ITRDTA             IQC0000008781     PUMA           853633150150                                              +    0000000001                                                                                            2021031111563901                                                                                                                                                                                                                                                                                                          
ITRDTA             IQC0000008781     PUMA           582723440140                                              +    0000000001                                                                                            2021031111563901                                                                                                                                                                                                                                                                                                          
ITRDTA             IQC0000008781     PUMA           588751010140                                              +    0000000001                                                                                            2021031111563901                                                                                                                                                                                                                                                                                                          
ITRDTA             IQC0000008781     PUMA           599143010140                                              +    0000000001                                                                                            2021031111563901                                                                                                                                                                                                                                                                                                          
ITRDTA             IQC0000008781     PUMA           371640020160                                              +    0000000001                                                                                            2021031111563901                                                                                                                                                                                                                                                                                                          
ITRDTA             IQC0000008781     PUMA           374874010240                                              +    0000000001                                                                                            2021031111563901                                                                                                                                                                                                                                                                                                          
ITRDTA             IQC0000008781     PUMA           366487080140                                              +    0000000001                                                                                            2021031111563901                                                                                                                                                                                                                                                                                                          
ITRDTA             IQC0000008781     PUMA           354367220140                                              +    0000000001                                                                                            2021031111563901                                                                                                                                                                                                                                                                                                          
ITRDTA             IQC0000008781     PUMA           371570020230                                              +    0000000001                                                                                            2021031111563901                                                                                                                                                                                                                                                                                                          
ITRDTA             IQC0000008781     PUMA           373075020270                                              +    0000000001                                                                                            2021031111563901                                                                                                                                                                                                                                                                                                          
ITRDTA             IQC0000008781     PUMA           370325070200                                              +    0000000001                                                                                            2021031111563901                                                                                                                                                                                                                                                                                                          
ITRDTA             IQC0000008781     PUMA           369502070180                                              +    0000000001                                                                                            2021031111563901                                                                                                                                                                                                                                                                                                          
ITRDTA             IQC0000008781     PUMA           371640020180                                              +    0000000001                                                                                            2021031111563901                                                                                                                                                                                                                                                                                                          
ITRDTA             IQC0000008781     PUMA           374037010230                                              +    0000000001                                                                                            2021031111563901                                                                                                                                                                                                                                                                                                          
ITRDTA             IQC0000008781     PUMA           366487120140                                              +    0000000001                                                                                            2021031111563901                                                                                                                                                                                                                                                                                                          
ITRDTA             IQC0000008781     PUMA           371995020270                                              +    0000000001                                                                                            2021031111563901                                                                                                                                                                                                                                                                                                          
ITRDTA             IQC0000008781     PUMA           369503010240                                              +    0000000001                                                                                            2021031111563901                                                                                                                                                                                                                                                                                                          
ITRDTA             IQC0000008781     PUMA           374066010240                                              +    0000000001                                                                                            2021031111563901                                                                                                                                                                                                                                                                                                          
ITRDTA             IQC0000008781     PUMA           372611060240                                              +    0000000001                                                                                            2021031111563901                                                                                                                                                                                                                                                                                                          
ITRDTA             IQC0000008781     PUMA           366805010160                                              +    0000000001                                                                                            2021031111563901                                                                                                                                                                                                                                                                                                          
ITRDTA             IQC0000008781     PUMA           369778180180                                              +    0000000001                                                                                            2021031111563901                                                                                                                                                                                                                                                                                                          
ITRDTA             IQC0000008781     PUMA           369778180160                                              +    0000000001                                                                                            2021031111563901                                                                                                                                                                                                                                                                                                          
ITRDTA             IQC0000008781     PUMA           366717020180                                              +    0000000001                                                                                            2021031111563901                                                                                                                                                                                                                                                                                                          
ITRDTA             IQC0000008781     PUMA           371582020230                                              +    0000000001                                                                                            2021031111563901                                                                                                                                                                                                                                                                                                          
ITRDTA             IQC0000008781     PUMA           371870020180                                              +    0000000001                                                                                            2021031111563901                                                                                                                                                                                                                                                                                                          
ITRDTA             IQC0000008781     PUMA           191071040160                                              +    0000000001                                                                                            2021031111563901                                                                                                                                                                                                                                                                                                          
ITRDTA             IQC0000008781     PUMA           373117100200                                              +    0000000001                                                                                            2021031111563901                                                                                                                                                                                                                                                                                                          
ITRDTA             IQC0000008781     PUMA           366903020220                                              +    0000000001                                                                                            2021031111563901                                                                                                                                                                                                                                                                                                          
ITRDTA             IQC0000008781     PUMA           371149150230                                              +    0000000001                                                                                            2021031111563901                                                                                                                                                                                                                                                                                                          
ITRDTA             IQC0000008781     PUMA           369503010160                                              +    0000000001                                                                                            2021031111563901                                                                                                                                                                                                                                                                                                          
ITRDTA             IQC0000008781     PUMA           374122060160                                              +    0000000001                                                                                            2021031111563901                                                                                                                                                                                                                                                                                                          
ITRDTA             IQC0000008781     PUMA           371149070240                                              +    0000000001                                                                                            2021031111563901                                                                                                                                                                                                                                                                                                          
ITRDTA             IQC0000008781     PUMA           365830140200                                              +    0000000001                                                                                            2021031111563901                                                                                                                                                                                                                                                                                                          
ITRDTA             IQC0000008781     PUMA           366717020160                                              +    0000000001                                                                                            2021031111563901                                                                                                                                                                                                                                                                                                          
ITRDTA             IQC0000008781     PUMA           371688020160                                              +    0000000001                                                                                            2021031111563901                                                                                                                                                                                                                                                                                                          
ITRDTA             IQC0000008781     PUMA           371149010240                                              +    0000000001                                                                                            2021031111563901                                                                                                                                                                                                                                                                                                          
ITRDTA             IQC0000008781     PUMA           354367220110                                              +    0000000001                                                                                            2021031111563901                                                                                                                                                                                                                                                                                                          
ITRDTA             IQC0000008781     PUMA           371870020160                                              +    0000000001                                                                                            2021031111563901                                                                                                                                                                                                                                                                                                          
ITRDTA             IQC0000008781     PUMA           366487120170                                              +    0000000001                                                                                            2021031111563901                                                                                                                                                                                                                                                                                                          
ITRTR0000000059
