WMSSOHO 20210120103148PUMA                CN   SOH Outbound
SOHDTA20210120103148PUMA           D7001          021766010100                                                                                2021012010314820210120103148          0000000005                                                                                                                                                                                                                                                          
SOHDTA20210120103148PUMA           D7002          190371020160                                                                                2021012010314820210120103148          0000000007                                                                                                                                                                                                                                                          
SOHDTA20210120103148PUMA           D7001          190371020170                                                                                2021012010314820210120103148          0000000006                                                                                                                                                                                                                                                          
SOHDTA20210120103148PUMA           D7001          190371020180                                                                                2021012010314820210120103148          0000000006                                                                                                                                                                                                                                                          
SOHDTA20210120103148PUMA           D7001          190371020190                                                                                2021012010314820210120103148          0000000006                                                                                                                                                                                                                                                          
SOHDTA20210120103148PUMA           D7001          190371020200                                                                                2021012010314820210120103148          0000000006                                                                                                                                                                                                                                                          
SOHDTA20210120103148PUMA           D7001          190371020210                                                                                2021012010314820210120103148          0000000006                                                                                                                                                                                                                                                          
SOHDTA20210120103148PUMA           D7001          190371020170                                                                                2021012010314820210120103148          0000000003                                                                                                                                                                                                                                                          
SOHDTA20210120103148PUMA           D7001          190371020180                                                                                2021012010314820210120103148          0000000003                                                                                                                                                                                                                                                          
SOHDTA20210120103148PUMA           D7001          190371020190                                                                                2021012010314820210120103148          0000000003                                                                                                                                                                                                                                                          
SOHDTA20210120103148PUMA           D7001          190371020200                                                                                2021012010314820210120103148          0000000003                                                                                                                                                                                                                                                          
SOHDTA20210120103148PUMA           D7001          190371020210                                                                                2021012010314820210120103148          0000000003                                                                                                                                                                                                                                                          
SOHTR0000000013
