WMSITR    O 20210315105024PUMA                CN   Inventory Transaction Outbound
ITRHDA          IQC0000008787PUMA           D6001D7002     20210312021541                    IQC01                                                                                                                                                                                                                                                                                                                                                                              
ITRDTA             IQC0000008787     PUMA           370546010240                                              +    0000000001                                                                                            2021031202154101                                                                                                                                                                                                                                                                                                          
ITRDTA             IQC0000008787     PUMA           372595010150                                              +    0000000001                                                                                            2021031202154101                                                                                                                                                                                                                                                                                                          
ITRDTA             IQC0000008787     PUMA           364977020240                                              +    0000000001                                                                                            2021031202154101                                                                                                                                                                                                                                                                                                          
ITRDTA             IQC0000008787     PUMA           366488030150                                              +    0000000001                                                                                            2021031202154101                                                                                                                                                                                                                                                                                                          
ITRDTA             IQC0000008787     PUMA           371766010210                                              +    0000000001                                                                                            2021031202154101                                                                                                                                                                                                                                                                                                          
ITRDTA             IQC0000008787     PUMA           356722110230                                              +    0000000001                                                                                            2021031202154101                                                                                                                                                                                                                                                                                                          
ITRDTA             IQC0000008787     PUMA           371195020180                                              +    0000000001                                                                                            2021031202154101                                                                                                                                                                                                                                                                                                          
ITRDTA             IQC0000008787     PUMA           370325070150                                              +    0000000001                                                                                            2021031202154101                                                                                                                                                                                                                                                                                                          
ITRDTA             IQC0000008787     PUMA           356722250200                                              +    0000000001                                                                                            2021031202154101                                                                                                                                                                                                                                                                                                          
ITRDTA             IQC0000008787     PUMA           354367220140                                              +    0000000001                                                                                            2021031202154101                                                                                                                                                                                                                                                                                                          
ITRDTA             IQC0000008787     PUMA           371498020240                                              +    0000000001                                                                                            2021031202154101                                                                                                                                                                                                                                                                                                          
ITRDTA             IQC0000008787     PUMA           371584010240                                              +    0000000001                                                                                            2021031202154101                                                                                                                                                                                                                                                                                                          
ITRDTA             IQC0000008787     PUMA           580823060130                                              +    0000000001                                                                                            2021031202154101                                                                                                                                                                                                                                                                                                          
ITRDTA             IQC0000008787     PUMA           356722110150                                              +    0000000001                                                                                            2021031202154101                                                                                                                                                                                                                                                                                                          
ITRDTA             IQC0000008787     PUMA           371986010240                                              +    0000000001                                                                                            2021031202154101                                                                                                                                                                                                                                                                                                          
ITRDTA             IQC0000008787     PUMA           366487120170                                              +    0000000001                                                                                            2021031202154101                                                                                                                                                                                                                                                                                                          
ITRDTA             IQC0000008787     PUMA           366416030160                                              +    0000000001                                                                                            2021031202154101                                                                                                                                                                                                                                                                                                          
ITRDTA             IQC0000008787     PUMA           366487120140                                              +    0000000001                                                                                            2021031202154101                                                                                                                                                                                                                                                                                                          
ITRDTA             IQC0000008787     PUMA           366487120180                                              +    0000000001                                                                                            2021031202154101                                                                                                                                                                                                                                                                                                          
ITRDTA             IQC0000008787     PUMA           369155010210                                              +    0000000001                                                                                            2021031202154101                                                                                                                                                                                                                                                                                                          
ITRDTA             IQC0000008787     PUMA           361730010200                                              +    0000000001                                                                                            2021031202154101                                                                                                                                                                                                                                                                                                          
ITRDTA             IQC0000008787     PUMA           369863050240                                              +    0000000001                                                                                            2021031202154101                                                                                                                                                                                                                                                                                                          
ITRDTA             IQC0000008787     PUMA           598236010130                                              +    0000000001                                                                                            2021031202154101                                                                                                                                                                                                                                                                                                          
ITRDTA             IQC0000008787     PUMA           598236010150                                              +    0000000001                                                                                            2021031202154101                                                                                                                                                                                                                                                                                                          
ITRTR0000000025
