WMSITR    O 20210315105034PUMA                CN   Inventory Transaction Outbound
ITRHDA          IQC0000008788PUMA           D6001D7001     20210312021541                    IQC01                                                                                                                                                                                                                                                                                                                                                                              
ITRDTA             IQC0000008788     PUMA           853639010130                                              +    0000000001                                                                                            2021031202154101                                                                                                                                                                                                                                                                                                          
ITRDTA             IQC0000008788     PUMA           581638010140                                              +    0000000001                                                                                            2021031202154101                                                                                                                                                                                                                                                                                                          
ITRDTA             IQC0000008788     PUMA           581637010150                                              +    0000000001                                                                                            2021031202154101                                                                                                                                                                                                                                                                                                          
ITRDTA             IQC0000008788     PUMA           845160060140                                              +    0000000001                                                                                            2021031202154101                                                                                                                                                                                                                                                                                                          
ITRDTA             IQC0000008788     PUMA           021912020120                                              +    0000000002                                                                                            2021031202154101                                                                                                                                                                                                                                                                                                          
ITRDTA             IQC0000008788     PUMA           581037010140                                              +    0000000001                                                                                            2021031202154101                                                                                                                                                                                                                                                                                                          
ITRDTA             IQC0000008788     PUMA           597471010150                                              +    0000000001                                                                                            2021031202154101                                                                                                                                                                                                                                                                                                          
ITRDTA             IQC0000008788     PUMA           845676010130                                              +    0000000001                                                                                            2021031202154101                                                                                                                                                                                                                                                                                                          
ITRDTA             IQC0000008788     PUMA           581619510120                                              +    0000000001                                                                                            2021031202154101                                                                                                                                                                                                                                                                                                          
ITRDTA             IQC0000008788     PUMA           845165060140                                              +    0000000001                                                                                            2021031202154101                                                                                                                                                                                                                                                                                                          
ITRDTA             IQC0000008788     PUMA           596873510130                                              +    0000000001                                                                                            2021031202154101                                                                                                                                                                                                                                                                                                          
ITRDTA             IQC0000008788     PUMA           580566020130                                              +    0000000001                                                                                            2021031202154101                                                                                                                                                                                                                                                                                                          
ITRDTA             IQC0000008788     PUMA           593054010160                                              +    0000000001                                                                                            2021031202154101                                                                                                                                                                                                                                                                                                          
ITRDTA             IQC0000008788     PUMA           581027520140                                              +    0000000001                                                                                            2021031202154101                                                                                                                                                                                                                                                                                                          
ITRDTA             IQC0000008788     PUMA           580879010130                                              +    0000000001                                                                                            2021031202154101                                                                                                                                                                                                                                                                                                          
ITRDTA             IQC0000008788     PUMA           041612010140                                              +    0000000001                                                                                            2021031202154101                                                                                                                                                                                                                                                                                                          
ITRDTA             IQC0000008788     PUMA           595907920130                                              +    0000000001                                                                                            2021031202154101                                                                                                                                                                                                                                                                                                          
ITRDTA             IQC0000008788     PUMA           022374010120                                              +    0000000002                                                                                            2021031202154101                                                                                                                                                                                                                                                                                                          
ITRDTA             IQC0000008788     PUMA           596533010160                                              +    0000000001                                                                                            2021031202154101                                                                                                                                                                                                                                                                                                          
ITRDTA             IQC0000008788     PUMA           853637150140                                              +    0000000001                                                                                            2021031202154101                                                                                                                                                                                                                                                                                                          
ITRDTA             IQC0000008788     PUMA           853633150140                                              +    0000000001                                                                                            2021031202154101                                                                                                                                                                                                                                                                                                          
ITRDTA             IQC0000008788     PUMA           356722250240                                              +    0000000001                                                                                            2021031202154101                                                                                                                                                                                                                                                                                                          
ITRDTA             IQC0000008788     PUMA           372611010270                                              +    0000000001                                                                                            2021031202154101                                                                                                                                                                                                                                                                                                          
ITRDTA             IQC0000008788     PUMA           371135040230                                              +    0000000001                                                                                            2021031202154101                                                                                                                                                                                                                                                                                                          
ITRDTA             IQC0000008788     PUMA           356722020230                                              +    0000000001                                                                                            2021031202154101                                                                                                                                                                                                                                                                                                          
ITRDTA             IQC0000008788     PUMA           369155010210                                              +    0000000001                                                                                            2021031202154101                                                                                                                                                                                                                                                                                                          
ITRDTA             IQC0000008788     PUMA           356722230230                                              +    0000000001                                                                                            2021031202154101                                                                                                                                                                                                                                                                                                          
ITRTR0000000028
