WMSITR    O 20210311072324PUMA                CN   Inventory Transaction Outbound
ITRHDA          IQC0000008783PUMA           D6001D7001     20210311115639                    IQC01                                                                                                                                                                                                                                                                                                                                                                              
ITRDTA             IQC0000008783     PUMA           582875010130                                              +    0000000001                                                                                            2021031111563901                                                                                                                                                                                                                                                                                                          
ITRDTA             IQC0000008783     PUMA           907710010100                                              +    0000000001                                                                                            2021031111563901                                                                                                                                                                                                                                                                                                          
ITRDTA             IQC0000008783     PUMA           907143110110                                              +    0000000003                                                                                            2021031111563901                                                                                                                                                                                                                                                                                                          
ITRDTA             IQC0000008783     PUMA           907143100100                                              +    0000000001                                                                                            2021031111563901                                                                                                                                                                                                                                                                                                          
ITRDTA             IQC0000008783     PUMA           593054060120                                              +    0000000001                                                                                            2021031111563901                                                                                                                                                                                                                                                                                                          
ITRDTA             IQC0000008783     PUMA           588736020120                                              +    0000000001                                                                                            2021031111563901                                                                                                                                                                                                                                                                                                          
ITRDTA             IQC0000008783     PUMA           595537010110                                              +    0000000001                                                                                            2021031111563901                                                                                                                                                                                                                                                                                                          
ITRDTA             IQC0000008783     PUMA           587003010150                                              +    0000000001                                                                                            2021031111563901                                                                                                                                                                                                                                                                                                          
ITRDTA             IQC0000008783     PUMA           582961010140                                              +    0000000001                                                                                            2021031111563901                                                                                                                                                                                                                                                                                                          
ITRDTA             IQC0000008783     PUMA           907134160130                                              +    0000000001                                                                                            2021031111563901                                                                                                                                                                                                                                                                                                          
ITRDTA             IQC0000008783     PUMA           582875030130                                              +    0000000001                                                                                            2021031111563901                                                                                                                                                                                                                                                                                                          
ITRDTA             IQC0000008783     PUMA           022546010120                                              +    0000000001                                                                                            2021031111563901                                                                                                                                                                                                                                                                                                          
ITRDTA             IQC0000008783     PUMA           580823010130                                              +    0000000001                                                                                            2021031111563901                                                                                                                                                                                                                                                                                                          
ITRDTA             IQC0000008783     PUMA           076927010100                                              +    0000000001                                                                                            2021031111563901                                                                                                                                                                                                                                                                                                          
ITRDTA             IQC0000008783     PUMA           853633150130                                              +    0000000001                                                                                            2021031111563901                                                                                                                                                                                                                                                                                                          
ITRDTA             IQC0000008783     PUMA           853633150160                                              +    0000000001                                                                                            2021031111563901                                                                                                                                                                                                                                                                                                          
ITRDTA             IQC0000008783     PUMA           853633010140                                              +    0000000001                                                                                            2021031111563901                                                                                                                                                                                                                                                                                                          
ITRDTA             IQC0000008783     PUMA           372611060210                                              +    0000000001                                                                                            2021031111563901                                                                                                                                                                                                                                                                                                          
ITRDTA             IQC0000008783     PUMA           366487120160                                              +    0000000001                                                                                            2021031111563901                                                                                                                                                                                                                                                                                                          
ITRDTA             IQC0000008783     PUMA           366717010180                                              +    0000000001                                                                                            2021031111563901                                                                                                                                                                                                                                                                                                          
ITRDTA             IQC0000008783     PUMA           191071040160                                              +    0000000001                                                                                            2021031111563901                                                                                                                                                                                                                                                                                                          
ITRDTA             IQC0000008783     PUMA           370076020240                                              +    0000000001                                                                                            2021031111563901                                                                                                                                                                                                                                                                                                          
ITRDTA             IQC0000008783     PUMA           372423020160                                              +    0000000001                                                                                            2021031111563901                                                                                                                                                                                                                                                                                                          
ITRDTA             IQC0000008783     PUMA           364977020260                                              +    0000000001                                                                                            2021031111563901                                                                                                                                                                                                                                                                                                          
ITRDTA             IQC0000008783     PUMA           363717050260                                              +    0000000001                                                                                            2021031111563901                                                                                                                                                                                                                                                                                                          
ITRDTA             IQC0000008783     PUMA           371582020240                                              +    0000000001                                                                                            2021031111563901                                                                                                                                                                                                                                                                                                          
ITRDTA             IQC0000008783     PUMA           371075010160                                              +    0000000001                                                                                            2021031111563901                                                                                                                                                                                                                                                                                                          
ITRDTA             IQC0000008783     PUMA           371475010240                                              +    0000000001                                                                                            2021031111563901                                                                                                                                                                                                                                                                                                          
ITRDTA             IQC0000008783     PUMA           371075010150                                              +    0000000001                                                                                            2021031111563901                                                                                                                                                                                                                                                                                                          
ITRDTA             IQC0000008783     PUMA           191071030150                                              +    0000000001                                                                                            2021031111563901                                                                                                                                                                                                                                                                                                          
ITRDTA             IQC0000008783     PUMA           191071030160                                              +    0000000001                                                                                            2021031111563901                                                                                                                                                                                                                                                                                                          
ITRDTA             IQC0000008783     PUMA           370376070150                                              +    0000000001                                                                                            2021031111563901                                                                                                                                                                                                                                                                                                          
ITRDTA             IQC0000008783     PUMA           372423010160                                              +    0000000001                                                                                            2021031111563901                                                                                                                                                                                                                                                                                                          
ITRDTA             IQC0000008783     PUMA           192581020170                                              +    0000000001                                                                                            2021031111563901                                                                                                                                                                                                                                                                                                          
ITRDTA             IQC0000008783     PUMA           354367220200                                              +    0000000001                                                                                            2021031111563901                                                                                                                                                                                                                                                                                                          
ITRDTA             IQC0000008783     PUMA           374211010240                                              +    0000000001                                                                                            2021031111563901                                                                                                                                                                                                                                                                                                          
ITRDTA             IQC0000008783     PUMA           354367220190                                              +    0000000001                                                                                            2021031111563901                                                                                                                                                                                                                                                                                                          
ITRDTA             IQC0000008783     PUMA           370325070150                                              +    0000000001                                                                                            2021031111563901                                                                                                                                                                                                                                                                                                          
ITRTR0000000039
