WMSITR    O 20210125031718PUMA                CN   Inventory Transaction Outbound
ITRHDA          ADJ0000008752PUMA           D6001          20210125031411                    ADJ3007                                                                                                                                                                                                                                                                                                                                                                            
ITRDTA             ADJ0000008752     PUMA           572435060120                                              +    0000001000                                                                                            202101250314113007                                                                                                                                                                                                                                                                                                        
ITRDTA             ADJ0000008752     PUMA           572435060140                                              +    0000001000                                                                                            202101250314113007                                                                                                                                                                                                                                                                                                        
ITRDTA             ADJ0000008752     PUMA           572435060160                                              +    0000001000                                                                                            202101250314113007                                                                                                                                                                                                                                                                                                        
ITRDTA             ADJ0000008752     PUMA           572435060150                                              +    0000001000                                                                                            202101250314113007                                                                                                                                                                                                                                                                                                        
ITRDTA             ADJ0000008752     PUMA           572435060130                                              +    0000001000                                                                                            202101250314113007                                                                                                                                                                                                                                                                                                        
ITRDTA             ADJ0000008752     PUMA           572435060170                                              +    0000001000                                                                                            202101250314113007                                                                                                                                                                                                                                                                                                        
ITRDTA             ADJ0000008752     PUMA           362397030140                                              +    0000001000                                                                                            202101250314113007                                                                                                                                                                                                                                                                                                        
ITRDTA             ADJ0000008752     PUMA           362397030330                                              +    0000001000                                                                                            202101250314113007                                                                                                                                                                                                                                                                                                        
ITRDTA             ADJ0000008752     PUMA           362397030220                                              +    0000001000                                                                                            202101250314113007                                                                                                                                                                                                                                                                                                        
ITRDTA             ADJ0000008752     PUMA           362397030240                                              +    0000001000                                                                                            202101250314113007                                                                                                                                                                                                                                                                                                        
ITRDTA             ADJ0000008752     PUMA           362397030300                                              +    0000001000                                                                                            202101250314113007                                                                                                                                                                                                                                                                                                        
ITRDTA             ADJ0000008752     PUMA           362397030290                                              +    0000001000                                                                                            202101250314113007                                                                                                                                                                                                                                                                                                        
ITRDTA             ADJ0000008752     PUMA           362397030150                                              +    0000001000                                                                                            202101250314113007                                                                                                                                                                                                                                                                                                        
ITRDTA             ADJ0000008752     PUMA           362397030170                                              +    0000001000                                                                                            202101250314113007                                                                                                                                                                                                                                                                                                        
ITRDTA             ADJ0000008752     PUMA           362397030160                                              +    0000001000                                                                                            202101250314113007                                                                                                                                                                                                                                                                                                        
ITRDTA             ADJ0000008752     PUMA           362397030180                                              +    0000001000                                                                                            202101250314113007                                                                                                                                                                                                                                                                                                        
ITRDTA             ADJ0000008752     PUMA           362397030210                                              +    0000001000                                                                                            202101250314113007                                                                                                                                                                                                                                                                                                        
ITRDTA             ADJ0000008752     PUMA           362397030280                                              +    0000001000                                                                                            202101250314113007                                                                                                                                                                                                                                                                                                        
ITRDTA             ADJ0000008752     PUMA           362397030260                                              +    0000001000                                                                                            202101250314113007                                                                                                                                                                                                                                                                                                        
ITRDTA             ADJ0000008752     PUMA           362397030270                                              +    0000001000                                                                                            202101250314113007                                                                                                                                                                                                                                                                                                        
ITRDTA             ADJ0000008752     PUMA           362397030200                                              +    0000001000                                                                                            202101250314113007                                                                                                                                                                                                                                                                                                        
ITRDTA             ADJ0000008752     PUMA           362397030320                                              +    0000001000                                                                                            202101250314113007                                                                                                                                                                                                                                                                                                        
ITRDTA             ADJ0000008752     PUMA           362397030190                                              +    0000001000                                                                                            202101250314113007                                                                                                                                                                                                                                                                                                        
ITRDTA             ADJ0000008752     PUMA           362397030250                                              +    0000001000                                                                                            202101250314113007                                                                                                                                                                                                                                                                                                        
ITRDTA             ADJ0000008752     PUMA           362397030230                                              +    0000001000                                                                                            202101250314113007                                                                                                                                                                                                                                                                                                        
ITRDTA             ADJ0000008752     PUMA           362520020210                                              +    0000001000                                                                                            202101250314113007                                                                                                                                                                                                                                                                                                        
ITRDTA             ADJ0000008752     PUMA           362520020290                                              +    0000001000                                                                                            202101250314113007                                                                                                                                                                                                                                                                                                        
ITRDTA             ADJ0000008752     PUMA           362520020200                                              +    0000001000                                                                                            202101250314113007                                                                                                                                                                                                                                                                                                        
ITRDTA             ADJ0000008752     PUMA           362520010140                                              +    0000001000                                                                                            202101250314113007                                                                                                                                                                                                                                                                                                        
ITRDTA             ADJ0000008752     PUMA           362520010300                                              +    0000001000                                                                                            202101250314113007                                                                                                                                                                                                                                                                                                        
ITRDTA             ADJ0000008752     PUMA           362520010210                                              +    0000001000                                                                                            202101250314113007                                                                                                                                                                                                                                                                                                        
ITRDTA             ADJ0000008752     PUMA           362520010200                                              +    0000001000                                                                                            202101250314113007                                                                                                                                                                                                                                                                                                        
ITRDTA             ADJ0000008752     PUMA           362520010180                                              +    0000001000                                                                                            202101250314113007                                                                                                                                                                                                                                                                                                        
ITRDTA             ADJ0000008752     PUMA           362520020280                                              +    0000001000                                                                                            202101250314113007                                                                                                                                                                                                                                                                                                        
ITRDTA             ADJ0000008752     PUMA           362520020180                                              +    0000001000                                                                                            202101250314113007                                                                                                                                                                                                                                                                                                        
ITRDTA             ADJ0000008752     PUMA           362520010160                                              +    0000001000                                                                                            202101250314113007                                                                                                                                                                                                                                                                                                        
ITRDTA             ADJ0000008752     PUMA           362520010230                                              +    0000001000                                                                                            202101250314113007                                                                                                                                                                                                                                                                                                        
ITRDTA             ADJ0000008752     PUMA           362520020230                                              +    0000001000                                                                                            202101250314113007                                                                                                                                                                                                                                                                                                        
ITRDTA             ADJ0000008752     PUMA           362520010270                                              +    0000001000                                                                                            202101250314113007                                                                                                                                                                                                                                                                                                        
ITRDTA             ADJ0000008752     PUMA           362520010250                                              +    0000001000                                                                                            202101250314113007                                                                                                                                                                                                                                                                                                        
ITRDTA             ADJ0000008752     PUMA           362520010190                                              +    0000001000                                                                                            202101250314113007                                                                                                                                                                                                                                                                                                        
ITRDTA             ADJ0000008752     PUMA           362520010320                                              +    0000001000                                                                                            202101250314113007                                                                                                                                                                                                                                                                                                        
ITRDTA             ADJ0000008752     PUMA           362520020140                                              +    0000001000                                                                                            202101250314113007                                                                                                                                                                                                                                                                                                        
ITRDTA             ADJ0000008752     PUMA           362520020270                                              +    0000001000                                                                                            202101250314113007                                                                                                                                                                                                                                                                                                        
ITRDTA             ADJ0000008752     PUMA           362520010260                                              +    0000001000                                                                                            202101250314113007                                                                                                                                                                                                                                                                                                        
ITRDTA             ADJ0000008752     PUMA           362520020220                                              +    0000001000                                                                                            202101250314113007                                                                                                                                                                                                                                                                                                        
ITRDTA             ADJ0000008752     PUMA           362520010170                                              +    0000001000                                                                                            202101250314113007                                                                                                                                                                                                                                                                                                        
ITRDTA             ADJ0000008752     PUMA           362520020300                                              +    0000001000                                                                                            202101250314113007                                                                                                                                                                                                                                                                                                        
ITRDTA             ADJ0000008752     PUMA           362520020170                                              +    0000001000                                                                                            202101250314113007                                                                                                                                                                                                                                                                                                        
ITRDTA             ADJ0000008752     PUMA           362520020250                                              +    0000001000                                                                                            202101250314113007                                                                                                                                                                                                                                                                                                        
ITRDTA             ADJ0000008752     PUMA           362520010220                                              +    0000001000                                                                                            202101250314113007                                                                                                                                                                                                                                                                                                        
ITRDTA             ADJ0000008752     PUMA           362520020320                                              +    0000001000                                                                                            202101250314113007                                                                                                                                                                                                                                                                                                        
ITRDTA             ADJ0000008752     PUMA           362520020160                                              +    0000001000                                                                                            202101250314113007                                                                                                                                                                                                                                                                                                        
ITRDTA             ADJ0000008752     PUMA           362520010150                                              +    0000001000                                                                                            202101250314113007                                                                                                                                                                                                                                                                                                        
ITRDTA             ADJ0000008752     PUMA           362520020240                                              +    0000001000                                                                                            202101250314113007                                                                                                                                                                                                                                                                                                        
ITRDTA             ADJ0000008752     PUMA           362520020190                                              +    0000001000                                                                                            202101250314113007                                                                                                                                                                                                                                                                                                        
ITRDTA             ADJ0000008752     PUMA           362520020150                                              +    0000001000                                                                                            202101250314113007                                                                                                                                                                                                                                                                                                        
ITRDTA             ADJ0000008752     PUMA           362520010280                                              +    0000001000                                                                                            202101250314113007                                                                                                                                                                                                                                                                                                        
ITRDTA             ADJ0000008752     PUMA           362520020260                                              +    0000001000                                                                                            202101250314113007                                                                                                                                                                                                                                                                                                        
ITRDTA             ADJ0000008752     PUMA           362520010240                                              +    0000001000                                                                                            202101250314113007                                                                                                                                                                                                                                                                                                        
ITRDTA             ADJ0000008752     PUMA           362520010290                                              +    0000001000                                                                                            202101250314113007                                                                                                                                                                                                                                                                                                        
ITRDTA             ADJ0000008752     PUMA           362408010330                                              +    0000001000                                                                                            202101250314113007                                                                                                                                                                                                                                                                                                        
ITRDTA             ADJ0000008752     PUMA           362408010300                                              +    0000001000                                                                                            202101250314113007                                                                                                                                                                                                                                                                                                        
ITRDTA             ADJ0000008752     PUMA           362408010170                                              +    0000001000                                                                                            202101250314113007                                                                                                                                                                                                                                                                                                        
ITRDTA             ADJ0000008752     PUMA           362408010180                                              +    0000001000                                                                                            202101250314113007                                                                                                                                                                                                                                                                                                        
ITRDTA             ADJ0000008752     PUMA           362408020230                                              +    0000001000                                                                                            202101250314113007                                                                                                                                                                                                                                                                                                        
ITRDTA             ADJ0000008752     PUMA           362408020160                                              +    0000001000                                                                                            202101250314113007                                                                                                                                                                                                                                                                                                        
ITRDTA             ADJ0000008752     PUMA           362408010200                                              +    0000001000                                                                                            202101250314113007                                                                                                                                                                                                                                                                                                        
ITRDTA             ADJ0000008752     PUMA           362408020140                                              +    0000001000                                                                                            202101250314113007                                                                                                                                                                                                                                                                                                        
ITRDTA             ADJ0000008752     PUMA           362408020270                                              +    0000001000                                                                                            202101250314113007                                                                                                                                                                                                                                                                                                        
ITRDTA             ADJ0000008752     PUMA           362408010220                                              +    0000001000                                                                                            202101250314113007                                                                                                                                                                                                                                                                                                        
ITRDTA             ADJ0000008752     PUMA           362408010270                                              +    0000001000                                                                                            202101250314113007                                                                                                                                                                                                                                                                                                        
ITRDTA             ADJ0000008752     PUMA           362408010280                                              +    0000001000                                                                                            202101250314113007                                                                                                                                                                                                                                                                                                        
ITRDTA             ADJ0000008752     PUMA           362408020220                                              +    0000001000                                                                                            202101250314113007                                                                                                                                                                                                                                                                                                        
ITRDTA             ADJ0000008752     PUMA           362408020170                                              +    0000001000                                                                                            202101250314113007                                                                                                                                                                                                                                                                                                        
ITRDTA             ADJ0000008752     PUMA           362408020180                                              +    0000001000                                                                                            202101250314113007                                                                                                                                                                                                                                                                                                        
ITRDTA             ADJ0000008752     PUMA           362408010260                                              +    0000001000                                                                                            202101250314113007                                                                                                                                                                                                                                                                                                        
ITRDTA             ADJ0000008752     PUMA           362408010150                                              +    0000001000                                                                                            202101250314113007                                                                                                                                                                                                                                                                                                        
ITRDTA             ADJ0000008752     PUMA           362408020150                                              +    0000001000                                                                                            202101250314113007                                                                                                                                                                                                                                                                                                        
ITRDTA             ADJ0000008752     PUMA           362408020320                                              +    0000001000                                                                                            202101250314113007                                                                                                                                                                                                                                                                                                        
ITRDTA             ADJ0000008752     PUMA           362408020250                                              +    0000001000                                                                                            202101250314113007                                                                                                                                                                                                                                                                                                        
ITRDTA             ADJ0000008752     PUMA           362408020210                                              +    0000001000                                                                                            202101250314113007                                                                                                                                                                                                                                                                                                        
ITRDTA             ADJ0000008752     PUMA           362408010320                                              +    0000001000                                                                                            202101250314113007                                                                                                                                                                                                                                                                                                        
ITRDTA             ADJ0000008752     PUMA           362408010210                                              +    0000001000                                                                                            202101250314113007                                                                                                                                                                                                                                                                                                        
ITRDTA             ADJ0000008752     PUMA           362408010190                                              +    0000001000                                                                                            202101250314113007                                                                                                                                                                                                                                                                                                        
ITRDTA             ADJ0000008752     PUMA           362408010250                                              +    0000001000                                                                                            202101250314113007                                                                                                                                                                                                                                                                                                        
ITRDTA             ADJ0000008752     PUMA           362408010240                                              +    0000001000                                                                                            202101250314113007                                                                                                                                                                                                                                                                                                        
ITRDTA             ADJ0000008752     PUMA           362408010230                                              +    0000001000                                                                                            202101250314113007                                                                                                                                                                                                                                                                                                        
ITRDTA             ADJ0000008752     PUMA           362408020190                                              +    0000001000                                                                                            202101250314113007                                                                                                                                                                                                                                                                                                        
ITRDTA             ADJ0000008752     PUMA           362408020260                                              +    0000001000                                                                                            202101250314113007                                                                                                                                                                                                                                                                                                        
ITRDTA             ADJ0000008752     PUMA           362408010290                                              +    0000001000                                                                                            202101250314113007                                                                                                                                                                                                                                                                                                        
ITRDTA             ADJ0000008752     PUMA           362408020300                                              +    0000001000                                                                                            202101250314113007                                                                                                                                                                                                                                                                                                        
ITRDTA             ADJ0000008752     PUMA           362408020280                                              +    0000001000                                                                                            202101250314113007                                                                                                                                                                                                                                                                                                        
ITRDTA             ADJ0000008752     PUMA           362408020240                                              +    0000001000                                                                                            202101250314113007                                                                                                                                                                                                                                                                                                        
ITRDTA             ADJ0000008752     PUMA           362408010140                                              +    0000001000                                                                                            202101250314113007                                                                                                                                                                                                                                                                                                        
ITRDTA             ADJ0000008752     PUMA           362408020290                                              +    0000001000                                                                                            202101250314113007                                                                                                                                                                                                                                                                                                        
ITRDTA             ADJ0000008752     PUMA           362408020330                                              +    0000001000                                                                                            202101250314113007                                                                                                                                                                                                                                                                                                        
ITRDTA             ADJ0000008752     PUMA           362408020200                                              +    0000001000                                                                                            202101250314113007                                                                                                                                                                                                                                                                                                        
ITRDTA             ADJ0000008752     PUMA           362408010160                                              +    0000001000                                                                                            202101250314113007                                                                                                                                                                                                                                                                                                        
ITRDTA             ADJ0000008752     PUMA           189811010170                                              +    0000001000                                                                                            202101250314113007                                                                                                                                                                                                                                                                                                        
ITRDTA             ADJ0000008752     PUMA           189811010240                                              +    0000001000                                                                                            202101250314113007                                                                                                                                                                                                                                                                                                        
ITRDTA             ADJ0000008752     PUMA           189811010150                                              +    0000001000                                                                                            202101250314113007                                                                                                                                                                                                                                                                                                        
ITRDTA             ADJ0000008752     PUMA           189811010210                                              +    0000001000                                                                                            202101250314113007                                                                                                                                                                                                                                                                                                        
ITRDTA             ADJ0000008752     PUMA           189811010200                                              +    0000001000                                                                                            202101250314113007                                                                                                                                                                                                                                                                                                        
ITRDTA             ADJ0000008752     PUMA           189811010250                                              +    0000001000                                                                                            202101250314113007                                                                                                                                                                                                                                                                                                        
ITRDTA             ADJ0000008752     PUMA           189811010180                                              +    0000001000                                                                                            202101250314113007                                                                                                                                                                                                                                                                                                        
ITRDTA             ADJ0000008752     PUMA           189811010270                                              +    0000001000                                                                                            202101250314113007                                                                                                                                                                                                                                                                                                        
ITRDTA             ADJ0000008752     PUMA           189811010190                                              +    0000001000                                                                                            202101250314113007                                                                                                                                                                                                                                                                                                        
ITRDTA             ADJ0000008752     PUMA           189811010160                                              +    0000001000                                                                                            202101250314113007                                                                                                                                                                                                                                                                                                        
ITRDTA             ADJ0000008752     PUMA           189811010140                                              +    0000001000                                                                                            202101250314113007                                                                                                                                                                                                                                                                                                        
ITRDTA             ADJ0000008752     PUMA           189811010230                                              +    0000001000                                                                                            202101250314113007                                                                                                                                                                                                                                                                                                        
ITRDTA             ADJ0000008752     PUMA           189811010220                                              +    0000001000                                                                                            202101250314113007                                                                                                                                                                                                                                                                                                        
ITRDTA             ADJ0000008752     PUMA           189905010220                                              +    0000001000                                                                                            202101250314113007                                                                                                                                                                                                                                                                                                        
ITRDTA             ADJ0000008752     PUMA           189905010170                                              +    0000001000                                                                                            202101250314113007                                                                                                                                                                                                                                                                                                        
ITRDTA             ADJ0000008752     PUMA           189905010240                                              +    0000001000                                                                                            202101250314113007                                                                                                                                                                                                                                                                                                        
ITRDTA             ADJ0000008752     PUMA           189905010190                                              +    0000001000                                                                                            202101250314113007                                                                                                                                                                                                                                                                                                        
ITRDTA             ADJ0000008752     PUMA           189905010150                                              +    0000001000                                                                                            202101250314113007                                                                                                                                                                                                                                                                                                        
ITRDTA             ADJ0000008752     PUMA           189905010160                                              +    0000001000                                                                                            202101250314113007                                                                                                                                                                                                                                                                                                        
ITRDTA             ADJ0000008752     PUMA           189905010210                                              +    0000001000                                                                                            202101250314113007                                                                                                                                                                                                                                                                                                        
ITRDTA             ADJ0000008752     PUMA           189905010230                                              +    0000001000                                                                                            202101250314113007                                                                                                                                                                                                                                                                                                        
ITRDTA             ADJ0000008752     PUMA           189905010260                                              +    0000001000                                                                                            202101250314113007                                                                                                                                                                                                                                                                                                        
ITRDTA             ADJ0000008752     PUMA           189905010250                                              +    0000001000                                                                                            202101250314113007                                                                                                                                                                                                                                                                                                        
ITRDTA             ADJ0000008752     PUMA           189905010140                                              +    0000001000                                                                                            202101250314113007                                                                                                                                                                                                                                                                                                        
ITRDTA             ADJ0000008752     PUMA           189905010200                                              +    0000001000                                                                                            202101250314113007                                                                                                                                                                                                                                                                                                        
ITRDTA             ADJ0000008752     PUMA           189905010270                                              +    0000001000                                                                                            202101250314113007                                                                                                                                                                                                                                                                                                        
ITRDTA             ADJ0000008752     PUMA           189905010180                                              +    0000001000                                                                                            202101250314113007                                                                                                                                                                                                                                                                                                        
ITRDTA             ADJ0000008752     PUMA           189904020260                                              +    0000001000                                                                                            202101250314113007                                                                                                                                                                                                                                                                                                        
ITRDTA             ADJ0000008752     PUMA           189904020220                                              +    0000001000                                                                                            202101250314113007                                                                                                                                                                                                                                                                                                        
ITRDTA             ADJ0000008752     PUMA           189904020200                                              +    0000001000                                                                                            202101250314113007                                                                                                                                                                                                                                                                                                        
ITRDTA             ADJ0000008752     PUMA           189904020280                                              +    0000001000                                                                                            202101250314113007                                                                                                                                                                                                                                                                                                        
ITRDTA             ADJ0000008752     PUMA           189904020180                                              +    0000001000                                                                                            202101250314113007                                                                                                                                                                                                                                                                                                        
ITRDTA             ADJ0000008752     PUMA           189904020290                                              +    0000001000                                                                                            202101250314113007                                                                                                                                                                                                                                                                                                        
ITRDTA             ADJ0000008752     PUMA           189904020250                                              +    0000001000                                                                                            202101250314113007                                                                                                                                                                                                                                                                                                        
ITRDTA             ADJ0000008752     PUMA           189904020190                                              +    0000001000                                                                                            202101250314113007                                                                                                                                                                                                                                                                                                        
ITRDTA             ADJ0000008752     PUMA           189904020170                                              +    0000001000                                                                                            202101250314113007                                                                                                                                                                                                                                                                                                        
ITRDTA             ADJ0000008752     PUMA           189904020160                                              +    0000001000                                                                                            202101250314113007                                                                                                                                                                                                                                                                                                        
ITRDTA             ADJ0000008752     PUMA           189904020230                                              +    0000001000                                                                                            202101250314113007                                                                                                                                                                                                                                                                                                        
ITRDTA             ADJ0000008752     PUMA           189904020240                                              +    0000001000                                                                                            202101250314113007                                                                                                                                                                                                                                                                                                        
ITRDTA             ADJ0000008752     PUMA           189904020210                                              +    0000001000                                                                                            202101250314113007                                                                                                                                                                                                                                                                                                        
ITRDTA             ADJ0000008752     PUMA           189781010230                                              +    0000001000                                                                                            202101250314113007                                                                                                                                                                                                                                                                                                        
ITRDTA             ADJ0000008752     PUMA           189781010300                                              +    0000001000                                                                                            202101250314113007                                                                                                                                                                                                                                                                                                        
ITRDTA             ADJ0000008752     PUMA           189781010250                                              +    0000001000                                                                                            202101250314113007                                                                                                                                                                                                                                                                                                        
ITRDTA             ADJ0000008752     PUMA           189781010150                                              +    0000001000                                                                                            202101250314113007                                                                                                                                                                                                                                                                                                        
ITRDTA             ADJ0000008752     PUMA           189781010190                                              +    0000001000                                                                                            202101250314113007                                                                                                                                                                                                                                                                                                        
ITRDTA             ADJ0000008752     PUMA           189781010270                                              +    0000001000                                                                                            202101250314113007                                                                                                                                                                                                                                                                                                        
ITRDTA             ADJ0000008752     PUMA           189781010260                                              +    0000001000                                                                                            202101250314113007                                                                                                                                                                                                                                                                                                        
ITRDTA             ADJ0000008752     PUMA           189781010180                                              +    0000001000                                                                                            202101250314113007                                                                                                                                                                                                                                                                                                        
ITRDTA             ADJ0000008752     PUMA           189781010330                                              +    0000001000                                                                                            202101250314113007                                                                                                                                                                                                                                                                                                        
ITRDTA             ADJ0000008752     PUMA           189781010160                                              +    0000001000                                                                                            202101250314113007                                                                                                                                                                                                                                                                                                        
ITRDTA             ADJ0000008752     PUMA           189781010140                                              +    0000001000                                                                                            202101250314113007                                                                                                                                                                                                                                                                                                        
ITRDTA             ADJ0000008752     PUMA           189781010240                                              +    0000001000                                                                                            202101250314113007                                                                                                                                                                                                                                                                                                        
ITRDTA             ADJ0000008752     PUMA           189781010210                                              +    0000001000                                                                                            202101250314113007                                                                                                                                                                                                                                                                                                        
ITRDTA             ADJ0000008752     PUMA           189781010290                                              +    0000001000                                                                                            202101250314113007                                                                                                                                                                                                                                                                                                        
ITRDTA             ADJ0000008752     PUMA           189781010320                                              +    0000001000                                                                                            202101250314113007                                                                                                                                                                                                                                                                                                        
ITRDTA             ADJ0000008752     PUMA           189781010220                                              +    0000001000                                                                                            202101250314113007                                                                                                                                                                                                                                                                                                        
ITRDTA             ADJ0000008752     PUMA           189781010170                                              +    0000001000                                                                                            202101250314113007                                                                                                                                                                                                                                                                                                        
ITRDTA             ADJ0000008752     PUMA           189781010280                                              +    0000001000                                                                                            202101250314113007                                                                                                                                                                                                                                                                                                        
ITRDTA             ADJ0000008752     PUMA           189781010200                                              +    0000001000                                                                                            202101250314113007                                                                                                                                                                                                                                                                                                        
ITRDTA             ADJ0000008752     PUMA           572966040160                                              +    0000001000                                                                                            202101250314113007                                                                                                                                                                                                                                                                                                        
ITRDTA             ADJ0000008752     PUMA           572966040120                                              +    0000001000                                                                                            202101250314113007                                                                                                                                                                                                                                                                                                        
ITRDTA             ADJ0000008752     PUMA           572966040150                                              +    0000001000                                                                                            202101250314113007                                                                                                                                                                                                                                                                                                        
ITRDTA             ADJ0000008752     PUMA           572966040110                                              +    0000001000                                                                                            202101250314113007                                                                                                                                                                                                                                                                                                        
ITRDTA             ADJ0000008752     PUMA           572968040120                                              +    0000001000                                                                                            202101250314113007                                                                                                                                                                                                                                                                                                        
ITRDTA             ADJ0000008752     PUMA           572966040130                                              +    0000001000                                                                                            202101250314113007                                                                                                                                                                                                                                                                                                        
ITRDTA             ADJ0000008752     PUMA           572966040140                                              +    0000001000                                                                                            202101250314113007                                                                                                                                                                                                                                                                                                        
ITRDTA             ADJ0000008752     PUMA           572968040140                                              +    0000001000                                                                                            202101250314113007                                                                                                                                                                                                                                                                                                        
ITRDTA             ADJ0000008752     PUMA           572968060150                                              +    0000001000                                                                                            202101250314113007                                                                                                                                                                                                                                                                                                        
ITRDTA             ADJ0000008752     PUMA           572968040160                                              +    0000001000                                                                                            202101250314113007                                                                                                                                                                                                                                                                                                        
ITRDTA             ADJ0000008752     PUMA           572968060120                                              +    0000001000                                                                                            202101250314113007                                                                                                                                                                                                                                                                                                        
ITRDTA             ADJ0000008752     PUMA           572968040150                                              +    0000001000                                                                                            202101250314113007                                                                                                                                                                                                                                                                                                        
ITRDTA             ADJ0000008752     PUMA           572968060160                                              +    0000001000                                                                                            202101250314113007                                                                                                                                                                                                                                                                                                        
ITRDTA             ADJ0000008752     PUMA           572968040130                                              +    0000001000                                                                                            202101250314113007                                                                                                                                                                                                                                                                                                        
ITRDTA             ADJ0000008752     PUMA           572968060140                                              +    0000001000                                                                                            202101250314113007                                                                                                                                                                                                                                                                                                        
ITRDTA             ADJ0000008752     PUMA           572968060130                                              +    0000001000                                                                                            202101250314113007                                                                                                                                                                                                                                                                                                        
ITRDTA             ADJ0000008752     PUMA           572968060110                                              +    0000001000                                                                                            202101250314113007                                                                                                                                                                                                                                                                                                        
ITRDTA             ADJ0000008752     PUMA           572968040110                                              +    0000001000                                                                                            202101250314113007                                                                                                                                                                                                                                                                                                        
ITRDTA             ADJ0000008752     PUMA           572941010140                                              +    0000001000                                                                                            202101250314113007                                                                                                                                                                                                                                                                                                        
ITRDTA             ADJ0000008752     PUMA           572941320140                                              +    0000001000                                                                                            202101250314113007                                                                                                                                                                                                                                                                                                        
ITRDTA             ADJ0000008752     PUMA           572941010110                                              +    0000001000                                                                                            202101250314113007                                                                                                                                                                                                                                                                                                        
ITRDTA             ADJ0000008752     PUMA           572941010120                                              +    0000001000                                                                                            202101250314113007                                                                                                                                                                                                                                                                                                        
ITRDTA             ADJ0000008752     PUMA           572941010150                                              +    0000001000                                                                                            202101250314113007                                                                                                                                                                                                                                                                                                        
ITRDTA             ADJ0000008752     PUMA           572941320130                                              +    0000001000                                                                                            202101250314113007                                                                                                                                                                                                                                                                                                        
ITRDTA             ADJ0000008752     PUMA           572941320120                                              +    0000001000                                                                                            202101250314113007                                                                                                                                                                                                                                                                                                        
ITRDTA             ADJ0000008752     PUMA           572941320150                                              +    0000001000                                                                                            202101250314113007                                                                                                                                                                                                                                                                                                        
ITRDTA             ADJ0000008752     PUMA           572941320110                                              +    0000001000                                                                                            202101250314113007                                                                                                                                                                                                                                                                                                        
ITRDTA             ADJ0000008752     PUMA           572941010130                                              +    0000001000                                                                                            202101250314113007                                                                                                                                                                                                                                                                                                        
