WMSITR    O 20210127111032PUMA                CN   Inventory Transaction Outbound
ITRHDA          IQC0000008764PUMA           D7001D7002     20210127105640                    IQC01                                                                                                                                                                                                                                                                                                                                                                              
ITRDTA             IQC0000008764     PUMA           852233020130                                              +    0000000001                                                                                            2021012710564001                                                                                                                                                                                                                                                                                                          
ITRDTA             IQC0000008764     PUMA           852233020110                                              +    0000000001                                                                                            2021012710564001                                                                                                                                                                                                                                                                                                          
ITRDTA             IQC0000008764     PUMA           852233020160                                              +    0000000001                                                                                            2021012710564001                                                                                                                                                                                                                                                                                                          
ITRDTA             IQC0000008764     PUMA           852233020120                                              +    0000000001                                                                                            2021012710564001                                                                                                                                                                                                                                                                                                          
ITRDTA             IQC0000008764     PUMA           852233020140                                              +    0000000001                                                                                            2021012710564001                                                                                                                                                                                                                                                                                                          
ITRDTA             IQC0000008764     PUMA           852233020150                                              +    0000000001                                                                                            2021012710564001                                                                                                                                                                                                                                                                                                          
ITRDTA             IQC0000008764     PUMA           853130020100                                              +    0000000001                                                                                            2021012710564001                                                                                                                                                                                                                                                                                                          
ITRTR0000000008
