WMSITR    O 20210311072335PUMA                CN   Inventory Transaction Outbound
ITRHDA          IQC0000008786PUMA           D6001D7001     20210311115640                    IQC01                                                                                                                                                                                                                                                                                                                                                                              
ITRDTA             IQC0000008786     PUMA           192442060220                                              +    0000000001                                                                                            2021031111564001                                                                                                                                                                                                                                                                                                          
ITRDTA             IQC0000008786     PUMA           360116060150                                              +    0000000001                                                                                            2021031111564001                                                                                                                                                                                                                                                                                                          
ITRDTA             IQC0000008786     PUMA           370325180180                                              +    0000000001                                                                                            2021031111564001                                                                                                                                                                                                                                                                                                          
ITRDTA             IQC0000008786     PUMA           356722110180                                              +    0000000001                                                                                            2021031111564001                                                                                                                                                                                                                                                                                                          
ITRDTA             IQC0000008786     PUMA           365787010230                                              +    0000000001                                                                                            2021031111564001                                                                                                                                                                                                                                                                                                          
ITRDTA             IQC0000008786     PUMA           368035060140                                              +    0000000001                                                                                            2021031111564001                                                                                                                                                                                                                                                                                                          
ITRDTA             IQC0000008786     PUMA           370325070180                                              +    0000000001                                                                                            2021031111564001                                                                                                                                                                                                                                                                                                          
ITRDTA             IQC0000008786     PUMA           365787010180                                              +    0000000001                                                                                            2021031111564001                                                                                                                                                                                                                                                                                                          
ITRDTA             IQC0000008786     PUMA           360263080140                                              +    0000000001                                                                                            2021031111564001                                                                                                                                                                                                                                                                                                          
ITRDTA             IQC0000008786     PUMA           364977020180                                              +    0000000001                                                                                            2021031111564001                                                                                                                                                                                                                                                                                                          
ITRDTA             IQC0000008786     PUMA           360116020180                                              +    0000000001                                                                                            2021031111564001                                                                                                                                                                                                                                                                                                          
ITRDTA             IQC0000008786     PUMA           370325150180                                              +    0000000001                                                                                            2021031111564001                                                                                                                                                                                                                                                                                                          
ITRDTA             IQC0000008786     PUMA           359169020260                                              +    0000000001                                                                                            2021031111564001                                                                                                                                                                                                                                                                                                          
ITRDTA             IQC0000008786     PUMA           855230030140                                              +    0000000001                                                                                            2021031111564001                                                                                                                                                                                                                                                                                                          
ITRDTA             IQC0000008786     PUMA           593054010130                                              +    0000000001                                                                                            2021031111564001                                                                                                                                                                                                                                                                                                          
ITRDTA             IQC0000008786     PUMA           581638010160                                              +    0000000001                                                                                            2021031111564001                                                                                                                                                                                                                                                                                                          
ITRDTA             IQC0000008786     PUMA           579124020130                                              +    0000000001                                                                                            2021031111564001                                                                                                                                                                                                                                                                                                          
ITRDTA             IQC0000008786     PUMA           576437510150                                              +    0000000001                                                                                            2021031111564001                                                                                                                                                                                                                                                                                                          
ITRDTA             IQC0000008786     PUMA           599216020130                                              +    0000000001                                                                                            2021031111564001                                                                                                                                                                                                                                                                                                          
ITRDTA             IQC0000008786     PUMA           855227010120                                              +    0000000001                                                                                            2021031111564001                                                                                                                                                                                                                                                                                                          
ITRDTA             IQC0000008786     PUMA           576437020120                                              +    0000000001                                                                                            2021031111564001                                                                                                                                                                                                                                                                                                          
ITRDTA             IQC0000008786     PUMA           844614010130                                              +    0000000001                                                                                            2021031111564001                                                                                                                                                                                                                                                                                                          
ITRDTA             IQC0000008786     PUMA           581619510120                                              +    0000000001                                                                                            2021031111564001                                                                                                                                                                                                                                                                                                          
ITRDTA             IQC0000008786     PUMA           581638370150                                              +    0000000001                                                                                            2021031111564001                                                                                                                                                                                                                                                                                                          
ITRTR0000000025
