WMSITR    O 20210311105530PUMA                CN   Inventory Transaction Outbound
ITRHDA          IQC0000008779PUMA           D6001D7001     20210311105515                    IQC01                                                                                                                                                                                                                                                                                                                                                                              
ITRDTA             IQC0000008779     PUMA           380196010150                                              +    0000000001                                                                                            2021031110551501                                                                                                                                                                                                                                                                                                          
ITRDTA             IQC0000008779     PUMA           375516010260                                              +    0000000001                                                                                            2021031110551501                                                                                                                                                                                                                                                                                                          
ITRDTA             IQC0000008779     PUMA           374666010140                                              +    0000000001                                                                                            2021031110551501                                                                                                                                                                                                                                                                                                          
ITRDTA             IQC0000008779     PUMA           907904010110                                              +    0000000001                                                                                            2021031110551501                                                                                                                                                                                                                                                                                                          
ITRDTA             IQC0000008779     PUMA           585403020160                                              +    0000000001                                                                                            2021031110551501                                                                                                                                                                                                                                                                                                          
ITRDTA             IQC0000008779     PUMA           757278020140                                              +    0000000001                                                                                            2021031110551501                                                                                                                                                                                                                                                                                                          
ITRDTA             IQC0000008779     PUMA           531411010140                                              +    0000000001                                                                                            2021031110551501                                                                                                                                                                                                                                                                                                          
ITRDTA             IQC0000008779     PUMA           935094010100                                              +    0000000001                                                                                            2021031110551501                                                                                                                                                                                                                                                                                                          
ITRDTA             IQC0000008779     PUMA           083526010100                                              +    0000000001                                                                                            2021031110551501                                                                                                                                                                                                                                                                                                          
ITRDTA             IQC0000008779     PUMA           531361700160                                              +    0000000001                                                                                            2021031110551501                                                                                                                                                                                                                                                                                                          
ITRDTA             IQC0000008779     PUMA           530614010130                                              +    0000000001                                                                                            2021031110551501                                                                                                                                                                                                                                                                                                          
ITRDTA             IQC0000008779     PUMA           585107020130                                              +    0000000001                                                                                            2021031110551501                                                                                                                                                                                                                                                                                                          
ITRDTA             IQC0000008779     PUMA           598261010130                                              +    0000000001                                                                                            2021031110551501                                                                                                                                                                                                                                                                                                          
ITRDTA             IQC0000008779     PUMA           598258010140                                              +    0000000001                                                                                            2021031110551501                                                                                                                                                                                                                                                                                                          
ITRDTA             IQC0000008779     PUMA           530709010120                                              +    0000000001                                                                                            2021031110551501                                                                                                                                                                                                                                                                                                          
ITRDTA             IQC0000008779     PUMA           369771020210                                              +    0000000001                                                                                            2021031110551501                                                                                                                                                                                                                                                                                                          
ITRTR0000000017
