WMSITR    O 20210311072332PUMA                CN   Inventory Transaction Outbound
ITRHDA          IQC0000008785PUMA           D6001D7002     20210311115639                    IQC01                                                                                                                                                                                                                                                                                                                                                                              
ITRDTA             IQC0000008785     PUMA           369287020140                                              +    0000000001                                                                                            2021031111563901                                                                                                                                                                                                                                                                                                          
ITRDTA             IQC0000008785     PUMA           192581010170                                              +    0000000001                                                                                            2021031111563901                                                                                                                                                                                                                                                                                                          
ITRDTA             IQC0000008785     PUMA           581617010140                                              +    0000000001                                                                                            2021031111563901                                                                                                                                                                                                                                                                                                          
ITRDTA             IQC0000008785     PUMA           370325070170                                              +    0000000001                                                                                            2021031111563901                                                                                                                                                                                                                                                                                                          
ITRDTA             IQC0000008785     PUMA           369777040270                                              +    0000000001                                                                                            2021031111563901                                                                                                                                                                                                                                                                                                          
ITRDTA             IQC0000008785     PUMA           593054010140                                              +    0000000001                                                                                            2021031111563901                                                                                                                                                                                                                                                                                                          
ITRDTA             IQC0000008785     PUMA           584745020120                                              +    0000000001                                                                                            2021031111563901                                                                                                                                                                                                                                                                                                          
ITRDTA             IQC0000008785     PUMA           369287020180                                              +    0000000001                                                                                            2021031111563901                                                                                                                                                                                                                                                                                                          
ITRDTA             IQC0000008785     PUMA           359128150230                                              +    0000000001                                                                                            2021031111563901                                                                                                                                                                                                                                                                                                          
ITRDTA             IQC0000008785     PUMA           581619510140                                              +    0000000001                                                                                            2021031111563901                                                                                                                                                                                                                                                                                                          
ITRDTA             IQC0000008785     PUMA           356722110240                                              +    0000000001                                                                                            2021031111563901                                                                                                                                                                                                                                                                                                          
ITRTR0000000012
