WMSASN    I 20201009091743PUMA                CN   ASN Inbound                                       
ASNHDC          3870047759                              PUMA                                                                                                                                                                                                                                                                                                                                                                                                 Constant                                                                                                                                                                                                                                                                                                                                                                                                                                             P7001                                                                        WSD20200921003C113_1          ZDESADV                       DELVRY03                      0000000049490757                                                                                                                                                                                                                                                                                                                                                                                                                                                                                                                                                                                                                                                                             
ASNDTC3870047759     3870047759          000010                                               352634030110                                                                      4                                                                                                                                                                                                                                                                                                                                                                                                                                                                                                                                                            3640051113                    00010                                                                                                                                                                             
ASNDTC3870047759     3870047759          000020                                               352634030120                                                                      9                                                                                                                                                                                                                                                                                                                                                                                                                                                                                                                                                            3640051113                    00020                                                                                                                                                                             
ASNDTC3870047759     3870047759          000030                                               352634030140                                                                      2                                                                                                                                                                                                                                                                                                                                                                                                                                                                                                                                                            3640051113                    00030                                                                                                                                                                             
ASNDTC3870047759     3870047759          000040                                               352634030170                                                                      3                                                                                                                                                                                                                                                                                                                                                                                                                                                                                                                                                            3640051113                    00040                                                                                                                                                                             
ASNDTC3870047759     3870047759          000050                                               352634030190                                                                      1                                                                                                                                                                                                                                                                                                                                                                                                                                                                                                                                                            3640051113                    00050                                                                                                                                                                             
ASNDTC3870047759     3870047759          000060                                               352634030200                                                                      4                                                                                                                                                                                                                                                                                                                                                                                                                                                                                                                                                            3640051113                    00060                                                                                                                                                                             
ASNDTC3870047759     3870047759          000070                                               352634050120                                                                      1                                                                                                                                                                                                                                                                                                                                                                                                                                                                                                                                                            3640051113                    00070                                                                                                                                                                             
ASNDTC3870047759     3870047759          000080                                               352634050140                                                                      1                                                                                                                                                                                                                                                                                                                                                                                                                                                                                                                                                            3640051113                    00080                                                                                                                                                                             
ASNDTC3870047759     3870047759          000090                                               352634050160                                                                      1                                                                                                                                                                                                                                                                                                                                                                                                                                                                                                                                                            3640051113                    00090                                                                                                                                                                             
ASNDTC3870047759     3870047759          000100                                               352634050170                                                                      1                                                                                                                                                                                                                                                                                                                                                                                                                                                                                                                                                            3640051113                    00100                                                                                                                                                                             
ASNDTC3870047759     3870047759          000110                                               352634050190                                                                      1                                                                                                                                                                                                                                                                                                                                                                                                                                                                                                                                                            3640051113                    00110                                                                                                                                                                             
ASNDTC3870047759     3870047759          000120                                               352634050220                                                                      1                                                                                                                                                                                                                                                                                                                                                                                                                                                                                                                                                            3640051113                    00120                                                                                                                                                                             
ASNDTC3870047759     3870047759          000130                                               352634050230                                                                      1                                                                                                                                                                                                                                                                                                                                                                                                                                                                                                                                                            3640051113                    00130                                                                                                                                                                             
ASNDTC3870047759     3870047759          000140                                               354367210190                                                                      1                                                                                                                                                                                                                                                                                                                                                                                                                                                                                                                                                            3640051113                    00140                                                                                                                                                                             
ASNDTC3870047759     3870047759          000150                                               354367220100                                                                      3                                                                                                                                                                                                                                                                                                                                                                                                                                                                                                                                                            3640051113                    00150                                                                                                                                                                             
ASNDTC3870047759     3870047759          000160                                               354367220110                                                                      9                                                                                                                                                                                                                                                                                                                                                                                                                                                                                                                                                            3640051113                    00160                                                                                                                                                                             
ASNDTC3870047759     3870047759          000170                                               354367220120                                                                      7                                                                                                                                                                                                                                                                                                                                                                                                                                                                                                                                                            3640051113                    00170                                                                                                                                                                             
ASNDTC3870047759     3870047759          000180                                               354367220130                                                                      2                                                                                                                                                                                                                                                                                                                                                                                                                                                                                                                                                            3640051113                    00180                                                                                                                                                                             
ASNDTC3870047759     3870047759          000190                                               354367220140                                                                      7                                                                                                                                                                                                                                                                                                                                                                                                                                                                                                                                                            3640051113                    00190                                                                                                                                                                             
ASNDTC3870047759     3870047759          000200                                               354367220150                                                                      1                                                                                                                                                                                                                                                                                                                                                                                                                                                                                                                                                            3640051113                    00200                                                                                                                                                                             
ASNDTC3870047759     3870047759          000210                                               354367220160                                                                      3                                                                                                                                                                                                                                                                                                                                                                                                                                                                                                                                                            3640051113                    00210                                                                                                                                                                             
ASNDTC3870047759     3870047759          000220                                               354367220170                                                                      6                                                                                                                                                                                                                                                                                                                                                                                                                                                                                                                                                            3640051113                    00220                                                                                                                                                                             
ASNDTC3870047759     3870047759          000230                                               354367220180                                                                      4                                                                                                                                                                                                                                                                                                                                                                                                                                                                                                                                                            3640051113                    00230                                                                                                                                                                             
ASNDTC3870047759     3870047759          000240                                               354367220190                                                                      15                                                                                                                                                                                                                                                                                                                                                                                                                                                                                                                                                           3640051113                    00240                                                                                                                                                                             
ASNDTC3870047759     3870047759          000250                                               354367220200                                                                      22                                                                                                                                                                                                                                                                                                                                                                                                                                                                                                                                                           3640051113                    00250                                                                                                                                                                             
ASNDTC3870047759     3870047759          000260                                               354367220220                                                                      4                                                                                                                                                                                                                                                                                                                                                                                                                                                                                                                                                            3640051113                    00260                                                                                                                                                                             
ASNDTC3870047759     3870047759          000270                                               362408140140                                                                      1                                                                                                                                                                                                                                                                                                                                                                                                                                                                                                                                                            3640051113                    00270                                                                                                                                                                             
ASNDTC3870047759     3870047759          000280                                               362408140160                                                                      1                                                                                                                                                                                                                                                                                                                                                                                                                                                                                                                                                            3640051113                    00280                                                                                                                                                                             
ASNDTC3870047759     3870047759          000290                                               362408140240                                                                      2                                                                                                                                                                                                                                                                                                                                                                                                                                                                                                                                                            3640051113                    00290                                                                                                                                                                             
ASNDTC3870047759     3870047759          000300                                               362408140260                                                                      3                                                                                                                                                                                                                                                                                                                                                                                                                                                                                                                                                            3640051113                    00300                                                                                                                                                                             
ASNDTC3870047759     3870047759          000310                                               363559010150                                                                      2                                                                                                                                                                                                                                                                                                                                                                                                                                                                                                                                                            3640051113                    00310                                                                                                                                                                             
ASNDTC3870047759     3870047759          000320                                               363559010160                                                                      16                                                                                                                                                                                                                                                                                                                                                                                                                                                                                                                                                           3640051113                    00320                                                                                                                                                                             
ASNDTC3870047759     3870047759          000330                                               363559010170                                                                      3                                                                                                                                                                                                                                                                                                                                                                                                                                                                                                                                                            3640051113                    00330                                                                                                                                                                             
ASNDTC3870047759     3870047759          000340                                               363559010180                                                                      6                                                                                                                                                                                                                                                                                                                                                                                                                                                                                                                                                            3640051113                    00340                                                                                                                                                                             
ASNDTC3870047759     3870047759          000350                                               363559020150                                                                      3                                                                                                                                                                                                                                                                                                                                                                                                                                                                                                                                                            3640051113                    00350                                                                                                                                                                             
ASNDTC3870047759     3870047759          000360                                               363559020160                                                                      9                                                                                                                                                                                                                                                                                                                                                                                                                                                                                                                                                            3640051113                    00360                                                                                                                                                                             
ASNDTC3870047759     3870047759          000370                                               363559020170                                                                      1                                                                                                                                                                                                                                                                                                                                                                                                                                                                                                                                                            3640051113                    00370                                                                                                                                                                             
ASNDTC3870047759     3870047759          000380                                               363559020180                                                                      3                                                                                                                                                                                                                                                                                                                                                                                                                                                                                                                                                            3640051113                    00380                                                                                                                                                                             
ASNDTC3870047759     3870047759          000390                                               364718010160                                                                      1                                                                                                                                                                                                                                                                                                                                                                                                                                                                                                                                                            3640051113                    00390                                                                                                                                                                             
ASNDTC3870047759     3870047759          000400                                               364989010270                                                                      1                                                                                                                                                                                                                                                                                                                                                                                                                                                                                                                                                            3640051113                    00400                                                                                                                                                                             
ASNDTC3870047759     3870047759          000410                                               365215010240                                                                      1                                                                                                                                                                                                                                                                                                                                                                                                                                                                                                                                                            3640051113                    00410                                                                                                                                                                             
ASNDTC3870047759     3870047759          000420                                               365215130250                                                                      1                                                                                                                                                                                                                                                                                                                                                                                                                                                                                                                                                            3640051113                    00420                                                                                                                                                                             
ASNDTC3870047759     3870047759          000430                                               365215130260                                                                      1                                                                                                                                                                                                                                                                                                                                                                                                                                                                                                                                                            3640051113                    00430                                                                                                                                                                             
ASNDTC3870047759     3870047759          000440                                               365347890150                                                                      3                                                                                                                                                                                                                                                                                                                                                                                                                                                                                                                                                            3640051113                    00440                                                                                                                                                                             
ASNDTC3870047759     3870047759          000450                                               365347890160                                                                      4                                                                                                                                                                                                                                                                                                                                                                                                                                                                                                                                                            3640051113                    00450                                                                                                                                                                             
ASNDTC3870047759     3870047759          000460                                               365347890210                                                                      1                                                                                                                                                                                                                                                                                                                                                                                                                                                                                                                                                            3640051113                    00460                                                                                                                                                                             
ASNDTC3870047759     3870047759          000470                                               365347890230                                                                      3                                                                                                                                                                                                                                                                                                                                                                                                                                                                                                                                                            3640051113                    00470                                                                                                                                                                             
ASNDTC3870047759     3870047759          000480                                               365347890260                                                                      3                                                                                                                                                                                                                                                                                                                                                                                                                                                                                                                                                            3640051113                    00480                                                                                                                                                                             
ASNDTC3870047759     3870047759          000490                                               365347890270                                                                      2                                                                                                                                                                                                                                                                                                                                                                                                                                                                                                                                                            3640051113                    00490                                                                                                                                                                             
ASNDTC3870047759     3870047759          000500                                               365587020140                                                                      1                                                                                                                                                                                                                                                                                                                                                                                                                                                                                                                                                            3640051113                    00500                                                                                                                                                                             
ASNDTC3870047759     3870047759          000510                                               365587020150                                                                      2                                                                                                                                                                                                                                                                                                                                                                                                                                                                                                                                                            3640051113                    00510                                                                                                                                                                             
ASNDTC3870047759     3870047759          000520                                               365587020180                                                                      1                                                                                                                                                                                                                                                                                                                                                                                                                                                                                                                                                            3640051113                    00520                                                                                                                                                                             
ASNDTC3870047759     3870047759          000530                                               365587020230                                                                      1                                                                                                                                                                                                                                                                                                                                                                                                                                                                                                                                                            3640051113                    00530                                                                                                                                                                             
ASNDTC3870047759     3870047759          000540                                               365587020240                                                                      3                                                                                                                                                                                                                                                                                                                                                                                                                                                                                                                                                            3640051113                    00540                                                                                                                                                                             
ASNDTC3870047759     3870047759          000550                                               365587020260                                                                      1                                                                                                                                                                                                                                                                                                                                                                                                                                                                                                                                                            3640051113                    00550                                                                                                                                                                             
ASNDTC3870047759     3870047759          000560                                               366109040150                                                                      1                                                                                                                                                                                                                                                                                                                                                                                                                                                                                                                                                            3640051113                    00560                                                                                                                                                                             
ASNDTC3870047759     3870047759          000570                                               366488020150                                                                      1                                                                                                                                                                                                                                                                                                                                                                                                                                                                                                                                                            3640051113                    00570                                                                                                                                                                             
ASNDTC3870047759     3870047759          000580                                               366488020160                                                                      1                                                                                                                                                                                                                                                                                                                                                                                                                                                                                                                                                            3640051113                    00580                                                                                                                                                                             
ASNDTC3870047759     3870047759          000590                                               366924050210                                                                      1                                                                                                                                                                                                                                                                                                                                                                                                                                                                                                                                                            3640051113                    00590                                                                                                                                                                             
ASNDTC3870047759     3870047759          000600                                               366924050270                                                                      1                                                                                                                                                                                                                                                                                                                                                                                                                                                                                                                                                            3640051113                    00600                                                                                                                                                                             
ASNDTC3870047759     3870047759          000610                                               369246020260                                                                      1                                                                                                                                                                                                                                                                                                                                                                                                                                                                                                                                                            3640051113                    00610                                                                                                                                                                             
ASNDTC3870047759     3870047759          000620                                               369449180140                                                                      1                                                                                                                                                                                                                                                                                                                                                                                                                                                                                                                                                            3640051113                    00620                                                                                                                                                                             
ASNDTC3870047759     3870047759          000630                                               369449190140                                                                      1                                                                                                                                                                                                                                                                                                                                                                                                                                                                                                                                                            3640051113                    00630                                                                                                                                                                             
ASNDTC3870047759     3870047759          000640                                               369449190160                                                                      1                                                                                                                                                                                                                                                                                                                                                                                                                                                                                                                                                            3640051113                    00640                                                                                                                                                                             
ASNDTC3870047759     3870047759          000650                                               369449190230                                                                      1                                                                                                                                                                                                                                                                                                                                                                                                                                                                                                                                                            3640051113                    00650                                                                                                                                                                             
ASNDTC3870047759     3870047759          000660                                               369449190240                                                                      2                                                                                                                                                                                                                                                                                                                                                                                                                                                                                                                                                            3640051113                    00660                                                                                                                                                                             
ASNDTC3870047759     3870047759          000670                                               369449190260                                                                      1                                                                                                                                                                                                                                                                                                                                                                                                                                                                                                                                                            3640051113                    00670                                                                                                                                                                             
ASNDTC3870047759     3870047759          000680                                               369449190270                                                                      1                                                                                                                                                                                                                                                                                                                                                                                                                                                                                                                                                            3640051113                    00680                                                                                                                                                                             
ASNDTC3870047759     3870047759          000690                                               369573030220                                                                      1                                                                                                                                                                                                                                                                                                                                                                                                                                                                                                                                                            3640051113                    00690                                                                                                                                                                             
ASNDTC3870047759     3870047759          000700                                               369573030230                                                                      2                                                                                                                                                                                                                                                                                                                                                                                                                                                                                                                                                            3640051113                    00700                                                                                                                                                                             
ASNDTC3870047759     3870047759          000710                                               369573030280                                                                      1                                                                                                                                                                                                                                                                                                                                                                                                                                                                                                                                                            3640051113                    00710                                                                                                                                                                             
ASNDTC3870047759     3870047759          000720                                               369833010180                                                                      1                                                                                                                                                                                                                                                                                                                                                                                                                                                                                                                                                            3640051113                    00720                                                                                                                                                                             
ASNDTC3870047759     3870047759          000730                                               369833020140                                                                      2                                                                                                                                                                                                                                                                                                                                                                                                                                                                                                                                                            3640051113                    00730                                                                                                                                                                             
ASNDTC3870047759     3870047759          000740                                               369833020150                                                                      2                                                                                                                                                                                                                                                                                                                                                                                                                                                                                                                                                            3640051113                    00740                                                                                                                                                                             
ASNDTC3870047759     3870047759          000750                                               369833020160                                                                      5                                                                                                                                                                                                                                                                                                                                                                                                                                                                                                                                                            3640051113                    00750                                                                                                                                                                             
ASNDTC3870047759     3870047759          000760                                               369833020200                                                                      2                                                                                                                                                                                                                                                                                                                                                                                                                                                                                                                                                            3640051113                    00760                                                                                                                                                                             
ASNDTC3870047759     3870047759          000770                                               369833030160                                                                      1                                                                                                                                                                                                                                                                                                                                                                                                                                                                                                                                                            3640051113                    00770                                                                                                                                                                             
ASNDTC3870047759     3870047759          000780                                               369863030140                                                                      1                                                                                                                                                                                                                                                                                                                                                                                                                                                                                                                                                            3640051113                    00780                                                                                                                                                                             
ASNDTC3870047759     3870047759          000790                                               369863030150                                                                      1                                                                                                                                                                                                                                                                                                                                                                                                                                                                                                                                                            3640051113                    00790                                                                                                                                                                             
ASNDTC3870047759     3870047759          000800                                               369863030160                                                                      2                                                                                                                                                                                                                                                                                                                                                                                                                                                                                                                                                            3640051113                    00800                                                                                                                                                                             
ASNDTC3870047759     3870047759          000810                                               369863030180                                                                      1                                                                                                                                                                                                                                                                                                                                                                                                                                                                                                                                                            3640051113                    00810                                                                                                                                                                             
ASNDTC3870047759     3870047759          000820                                               369863030240                                                                      1                                                                                                                                                                                                                                                                                                                                                                                                                                                                                                                                                            3640051113                    00820                                                                                                                                                                             
ASNDTC3870047759     3870047759          000830                                               369863180230                                                                      1                                                                                                                                                                                                                                                                                                                                                                                                                                                                                                                                                            3640051113                    00830                                                                                                                                                                             
ASNDTC3870047759     3870047759          000840                                               370185010200                                                                      1                                                                                                                                                                                                                                                                                                                                                                                                                                                                                                                                                            3640051113                    00840                                                                                                                                                                             
ASNDTC3870047759     3870047759          000850                                               370733050180                                                                      1                                                                                                                                                                                                                                                                                                                                                                                                                                                                                                                                                            3640051113                    00850                                                                                                                                                                             
ASNDTC3870047759     3870047759          000860                                               370846110260                                                                      2                                                                                                                                                                                                                                                                                                                                                                                                                                                                                                                                                            3640051113                    00860                                                                                                                                                                             
ASNDTC3870047759     3870047759          000870                                               370847040150                                                                      1                                                                                                                                                                                                                                                                                                                                                                                                                                                                                                                                                            3640051113                    00870                                                                                                                                                                             
ASNDTC3870047759     3870047759          000880                                               370847040160                                                                      2                                                                                                                                                                                                                                                                                                                                                                                                                                                                                                                                                            3640051113                    00880                                                                                                                                                                             
ASNDTC3870047759     3870047759          000890                                               370847040170                                                                      1                                                                                                                                                                                                                                                                                                                                                                                                                                                                                                                                                            3640051113                    00890                                                                                                                                                                             
ASNDTC3870047759     3870047759          000900                                               370847040200                                                                      3                                                                                                                                                                                                                                                                                                                                                                                                                                                                                                                                                            3640051113                    00900                                                                                                                                                                             
ASNDTC3870047759     3870047759          000910                                               370847040210                                                                      3                                                                                                                                                                                                                                                                                                                                                                                                                                                                                                                                                            3640051113                    00910                                                                                                                                                                             
ASNDTC3870047759     3870047759          000920                                               370847040220                                                                      2                                                                                                                                                                                                                                                                                                                                                                                                                                                                                                                                                            3640051113                    00920                                                                                                                                                                             
ASNDTC3870047759     3870047759          000930                                               370847040230                                                                      1                                                                                                                                                                                                                                                                                                                                                                                                                                                                                                                                                            3640051113                    00930                                                                                                                                                                             
ASNDTC3870047759     3870047759          000940                                               370847040240                                                                      4                                                                                                                                                                                                                                                                                                                                                                                                                                                                                                                                                            3640051113                    00940                                                                                                                                                                             
ASNDTC3870047759     3870047759          000950                                               370847040250                                                                      1                                                                                                                                                                                                                                                                                                                                                                                                                                                                                                                                                            3640051113                    00950                                                                                                                                                                             
ASNDTC3870047759     3870047759          000960                                               370847040260                                                                      2                                                                                                                                                                                                                                                                                                                                                                                                                                                                                                                                                            3640051113                    00960                                                                                                                                                                             
ASNDTC3870047759     3870047759          000970                                               370847160140                                                                      2                                                                                                                                                                                                                                                                                                                                                                                                                                                                                                                                                            3640051113                    00970                                                                                                                                                                             
ASNDTC3870047759     3870047759          000980                                               370847160150                                                                      1                                                                                                                                                                                                                                                                                                                                                                                                                                                                                                                                                            3640051113                    00980                                                                                                                                                                             
ASNDTC3870047759     3870047759          000990                                               370847160160                                                                      4                                                                                                                                                                                                                                                                                                                                                                                                                                                                                                                                                            3640051113                    00990                                                                                                                                                                             
ASNDTC3870047759     3870047759          001000                                               370847160180                                                                      1                                                                                                                                                                                                                                                                                                                                                                                                                                                                                                                                                            3640051113                    01000                                                                                                                                                                             
ASNDTC3870047759     3870047759          001010                                               371149150140                                                                      1                                                                                                                                                                                                                                                                                                                                                                                                                                                                                                                                                            3640051113                    01010                                                                                                                                                                             
ASNDTC3870047759     3870047759          001020                                               371149150150                                                                      3                                                                                                                                                                                                                                                                                                                                                                                                                                                                                                                                                            3640051113                    01020                                                                                                                                                                             
ASNDTC3870047759     3870047759          001030                                               371149150160                                                                      3                                                                                                                                                                                                                                                                                                                                                                                                                                                                                                                                                            3640051113                    01030                                                                                                                                                                             
ASNDTC3870047759     3870047759          001040                                               371149150210                                                                      2                                                                                                                                                                                                                                                                                                                                                                                                                                                                                                                                                            3640051113                    01040                                                                                                                                                                             
ASNDTC3870047759     3870047759          001050                                               371149150230                                                                      2                                                                                                                                                                                                                                                                                                                                                                                                                                                                                                                                                            3640051113                    01050                                                                                                                                                                             
