WMSASN    I 20201229022024PUMA                CN   ASN Inbound                                       
ASNHDC          3400559973                              PUMA                                           3_10185                                                                                                                                                                                                                                                                                                                                               Constant                                                                                                                                                                                                                                                                                                                                                                                                                                             P6001                                                                                                      ZDESADV                       DELVRY03                      0000000054183028                                                                                                                                                                                                                                                                                                                                                                                                                                                                                                                                                                                                                                                                             
ASNDTC3400559973     3400559973          000010                                               373000010270                                                                      1                                                                                                                                                                                                                                                                                                                                                                                                                                                                                                                                                            3700559139                    00010                                                                                                                                                                             
ASNDTC3400559973     3400559973          000020                                               373000010290                                                                      1                                                                                                                                                                                                                                                                                                                                                                                                                                                                                                                                                            3700559139                    00020                                                                                                                                                                             
ASNDTC3400559973     3400559973          000030                                               371584040230                                                                      1                                                                                                                                                                                                                                                                                                                                                                                                                                                                                                                                                            3700559139                    00030                                                                                                                                                                             
ASNDTC3400559973     3400559973          000040                                               371584040240                                                                      1                                                                                                                                                                                                                                                                                                                                                                                                                                                                                                                                                            3700559139                    00040                                                                                                                                                                             
ASNDTC3400559973     3400559973          000050                                               371584040260                                                                      1                                                                                                                                                                                                                                                                                                                                                                                                                                                                                                                                                            3700559139                    00050                                                                                                                                                                             
ASNDTC3400559973     3400559973          000060                                               371584050240                                                                      1                                                                                                                                                                                                                                                                                                                                                                                                                                                                                                                                                            3700559139                    00060                                                                                                                                                                             
ASNDTC3400559973     3400559973          000070                                               371584050260                                                                      1                                                                                                                                                                                                                                                                                                                                                                                                                                                                                                                                                            3700559139                    00070                                                                                                                                                                             
ASNDTC3400559973     3400559973          000080                                               371584050270                                                                      1                                                                                                                                                                                                                                                                                                                                                                                                                                                                                                                                                            3700559139                    00080                                                                                                                                                                             
ASNDTC3400559973     3400559973          000090                                               371584050290                                                                      1                                                                                                                                                                                                                                                                                                                                                                                                                                                                                                                                                            3700559139                    00090                                                                                                                                                                             
ASNTR0000000010  